{
  "_format": "hh-sol-artifact-1",
  "contractName": "FarmBot",
  "sourceName": "farm-bot/codebase/contracts/farm-bot.sol",
  "abi": [
    {
      "inputs": [
        {
          "internalType": "address",
          "name": "_owner",
          "type": "address"
        },
        {
          "internalType": "address",
          "name": "_stakingRewards",
          "type": "address"
        },
        {
          "internalType": "address",
          "name": "_router",
          "type": "address"
        },
        {
          "internalType": "address[]",
          "name": "_path0",
          "type": "address[]"
        },
        {
          "internalType": "address[]",
          "name": "_path1",
          "type": "address[]"
        }
      ],
      "stateMutability": "nonpayable",
      "type": "constructor"
    },
    {
      "anonymous": false,
      "inputs": [
        {
          "indexed": true,
          "internalType": "address",
          "name": "owner",
          "type": "address"
        },
        {
          "indexed": true,
          "internalType": "address",
          "name": "spender",
          "type": "address"
        },
        {
          "indexed": false,
          "internalType": "uint256",
          "name": "value",
          "type": "uint256"
        }
      ],
      "name": "Approval",
      "type": "event"
    },
    {
      "anonymous": false,
      "inputs": [
        {
          "indexed": false,
          "internalType": "address",
          "name": "oldOwner",
          "type": "address"
        },
        {
          "indexed": false,
          "internalType": "address",
          "name": "newOwner",
          "type": "address"
        }
      ],
      "name": "OwnerChanged",
      "type": "event"
    },
    {
      "anonymous": false,
      "inputs": [
        {
          "indexed": false,
          "internalType": "address",
          "name": "newOwner",
          "type": "address"
        }
      ],
      "name": "OwnerNominated",
      "type": "event"
    },
    {
      "anonymous": false,
      "inputs": [
        {
          "indexed": true,
          "internalType": "address",
          "name": "from",
          "type": "address"
        },
        {
          "indexed": true,
          "internalType": "address",
          "name": "to",
          "type": "address"
        },
        {
          "indexed": false,
          "internalType": "uint256",
          "name": "value",
          "type": "uint256"
        }
      ],
      "name": "Transfer",
      "type": "event"
    },
    {
      "inputs": [],
      "name": "acceptOwnership",
      "outputs": [],
      "stateMutability": "nonpayable",
      "type": "function"
    },
    {
      "inputs": [
        {
          "internalType": "address",
          "name": "",
          "type": "address"
        },
        {
          "internalType": "address",
          "name": "",
          "type": "address"
        }
      ],
      "name": "allowance",
      "outputs": [
        {
          "internalType": "uint256",
          "name": "",
          "type": "uint256"
        }
      ],
      "stateMutability": "view",
      "type": "function"
    },
    {
      "inputs": [
        {
          "internalType": "address",
          "name": "spender",
          "type": "address"
        },
        {
          "internalType": "uint256",
          "name": "value",
          "type": "uint256"
        }
      ],
      "name": "approve",
      "outputs": [
        {
          "internalType": "bool",
          "name": "",
          "type": "bool"
        }
      ],
      "stateMutability": "nonpayable",
      "type": "function"
    },
    {
      "inputs": [
        {
          "internalType": "address",
          "name": "",
          "type": "address"
        }
      ],
      "name": "balanceOf",
      "outputs": [
        {
          "internalType": "uint256",
          "name": "",
          "type": "uint256"
        }
      ],
      "stateMutability": "view",
      "type": "function"
    },
    {
      "inputs": [
        {
          "internalType": "uint256",
          "name": "deadline",
          "type": "uint256"
        }
      ],
      "name": "claimRewards",
      "outputs": [],
      "stateMutability": "nonpayable",
      "type": "function"
    },
    {
      "inputs": [],
      "name": "decimals",
      "outputs": [
        {
          "internalType": "uint8",
          "name": "",
          "type": "uint8"
        }
      ],
      "stateMutability": "view",
      "type": "function"
    },
    {
      "inputs": [
        {
          "internalType": "uint256",
          "name": "_lpAmount",
          "type": "uint256"
        }
      ],
      "name": "deposit",
      "outputs": [],
      "stateMutability": "nonpayable",
      "type": "function"
    },
    {
      "inputs": [],
      "name": "feeDenominator",
      "outputs": [
        {
          "internalType": "uint256",
          "name": "",
          "type": "uint256"
        }
      ],
      "stateMutability": "view",
      "type": "function"
    },
    {
      "inputs": [],
      "name": "feeNumerator",
      "outputs": [
        {
          "internalType": "uint256",
          "name": "",
          "type": "uint256"
        }
      ],
      "stateMutability": "view",
      "type": "function"
    },
    {
      "inputs": [
        {
          "internalType": "uint256",
          "name": "_lpAmount",
          "type": "uint256"
        }
      ],
      "name": "getFpAmount",
      "outputs": [
        {
          "internalType": "uint256",
          "name": "",
          "type": "uint256"
        }
      ],
      "stateMutability": "view",
      "type": "function"
    },
    {
      "inputs": [
        {
          "internalType": "uint256",
          "name": "_fpAmount",
          "type": "uint256"
        }
      ],
      "name": "getLpAmount",
      "outputs": [
        {
          "internalType": "uint256",
          "name": "",
          "type": "uint256"
        }
      ],
      "stateMutability": "view",
      "type": "function"
    },
    {
      "inputs": [],
      "name": "investInFarm",
      "outputs": [],
      "stateMutability": "nonpayable",
      "type": "function"
    },
    {
      "inputs": [],
      "name": "lpTotalBalance",
      "outputs": [
        {
          "internalType": "uint256",
          "name": "",
          "type": "uint256"
        }
      ],
      "stateMutability": "view",
      "type": "function"
    },
    {
      "inputs": [],
      "name": "name",
      "outputs": [
        {
          "internalType": "string",
          "name": "",
          "type": "string"
        }
      ],
      "stateMutability": "view",
      "type": "function"
    },
    {
      "inputs": [
        {
          "internalType": "address",
          "name": "_owner",
          "type": "address"
        }
      ],
      "name": "nominateNewOwner",
      "outputs": [],
      "stateMutability": "nonpayable",
      "type": "function"
    },
    {
      "inputs": [],
      "name": "nominatedOwner",
      "outputs": [
        {
          "internalType": "address",
          "name": "",
          "type": "address"
        }
      ],
      "stateMutability": "view",
      "type": "function"
    },
    {
      "inputs": [],
      "name": "owner",
      "outputs": [
        {
          "internalType": "address",
          "name": "",
          "type": "address"
        }
      ],
      "stateMutability": "view",
      "type": "function"
    },
    {
      "inputs": [
        {
          "internalType": "uint256",
          "name": "",
          "type": "uint256"
        }
      ],
      "name": "path0",
      "outputs": [
        {
          "internalType": "address",
          "name": "",
          "type": "address"
        }
      ],
      "stateMutability": "view",
      "type": "function"
    },
    {
      "inputs": [
        {
          "internalType": "uint256",
          "name": "",
          "type": "uint256"
        }
      ],
      "name": "path1",
      "outputs": [
        {
          "internalType": "address",
          "name": "",
          "type": "address"
        }
      ],
      "stateMutability": "view",
      "type": "function"
    },
    {
      "inputs": [],
      "name": "rewardsToken",
      "outputs": [
        {
          "internalType": "contract IERC20",
          "name": "",
          "type": "address"
        }
      ],
      "stateMutability": "view",
      "type": "function"
    },
    {
      "inputs": [],
      "name": "router",
      "outputs": [
        {
          "internalType": "contract IUniswapV2Router02",
          "name": "",
          "type": "address"
        }
      ],
      "stateMutability": "view",
      "type": "function"
    },
    {
      "inputs": [],
      "name": "slippageDenominator",
      "outputs": [
        {
          "internalType": "uint256",
          "name": "",
          "type": "uint256"
        }
      ],
      "stateMutability": "view",
      "type": "function"
    },
    {
      "inputs": [],
      "name": "slippageNumerator",
      "outputs": [
        {
          "internalType": "uint256",
          "name": "",
          "type": "uint256"
        }
      ],
      "stateMutability": "view",
      "type": "function"
    },
    {
      "inputs": [],
      "name": "stakingRewards",
      "outputs": [
        {
          "internalType": "contract StakingRewards",
          "name": "",
          "type": "address"
        }
      ],
      "stateMutability": "view",
      "type": "function"
    },
    {
      "inputs": [],
      "name": "stakingToken",
      "outputs": [
        {
          "internalType": "contract IUniswapV2Pair",
          "name": "",
          "type": "address"
        }
      ],
      "stateMutability": "view",
      "type": "function"
    },
    {
      "inputs": [],
      "name": "stakingToken0",
      "outputs": [
        {
          "internalType": "contract IERC20",
          "name": "",
          "type": "address"
        }
      ],
      "stateMutability": "view",
      "type": "function"
    },
    {
      "inputs": [],
      "name": "stakingToken1",
      "outputs": [
        {
          "internalType": "contract IERC20",
          "name": "",
          "type": "address"
        }
      ],
      "stateMutability": "view",
      "type": "function"
    },
    {
      "inputs": [],
      "name": "symbol",
      "outputs": [
        {
          "internalType": "string",
          "name": "",
          "type": "string"
        }
      ],
      "stateMutability": "view",
      "type": "function"
    },
    {
      "inputs": [],
      "name": "totalSupply",
      "outputs": [
        {
          "internalType": "uint256",
          "name": "",
          "type": "uint256"
        }
      ],
      "stateMutability": "view",
      "type": "function"
    },
    {
      "inputs": [
        {
          "internalType": "address",
          "name": "to",
          "type": "address"
        },
        {
          "internalType": "uint256",
          "name": "value",
          "type": "uint256"
        }
      ],
      "name": "transfer",
      "outputs": [
        {
          "internalType": "bool",
          "name": "",
          "type": "bool"
        }
      ],
      "stateMutability": "nonpayable",
      "type": "function"
    },
    {
      "inputs": [
        {
          "internalType": "address",
          "name": "from",
          "type": "address"
        },
        {
          "internalType": "address",
          "name": "to",
          "type": "address"
        },
        {
          "internalType": "uint256",
          "name": "value",
          "type": "uint256"
        }
      ],
      "name": "transferFrom",
      "outputs": [
        {
          "internalType": "bool",
          "name": "",
          "type": "bool"
        }
      ],
      "stateMutability": "nonpayable",
      "type": "function"
    },
    {
      "inputs": [
        {
          "internalType": "uint256",
          "name": "_feeNumerator",
          "type": "uint256"
        },
        {
          "internalType": "uint256",
          "name": "_feeDenominator",
          "type": "uint256"
        }
      ],
      "name": "updateFee",
      "outputs": [],
      "stateMutability": "nonpayable",
      "type": "function"
    },
    {
      "inputs": [
        {
          "internalType": "address[]",
          "name": "_path0",
          "type": "address[]"
        },
        {
          "internalType": "address[]",
          "name": "_path1",
          "type": "address[]"
        }
      ],
      "name": "updatePaths",
      "outputs": [],
      "stateMutability": "nonpayable",
      "type": "function"
    },
    {
      "inputs": [
        {
          "internalType": "uint256",
          "name": "_slippageNumerator",
          "type": "uint256"
        },
        {
          "internalType": "uint256",
          "name": "_slippageDenominator",
          "type": "uint256"
        }
      ],
      "name": "updateSlippage",
      "outputs": [],
      "stateMutability": "nonpayable",
      "type": "function"
    },
    {
      "inputs": [
        {
          "internalType": "uint256",
          "name": "_lpAmount",
          "type": "uint256"
        }
      ],
      "name": "withdraw",
      "outputs": [],
      "stateMutability": "nonpayable",
      "type": "function"
    },
    {
      "inputs": [],
      "name": "withdrawAll",
      "outputs": [],
      "stateMutability": "nonpayable",
      "type": "function"
    }
  ],
  "bytecode": "0x60806040526063600e556064600f5560016010556103e86011553480156200002657600080fd5b50604051620046603803806200466083398181016040528101906200004c919062000736565b84600073ffffffffffffffffffffffffffffffffffffffff168173ffffffffffffffffffffffffffffffffffffffff161415620000c0576040517f08c379a0000000000000000000000000000000000000000000000000000000008152600401620000b7906200087b565b60405180910390fd5b806000806101000a81548173ffffffffffffffffffffffffffffffffffffffff021916908373ffffffffffffffffffffffffffffffffffffffff1602179055507fb532073b38c83145e3e5135377a08bf9aab55bc0fd7c1179cd4fb995d2a5159c600082604051620001349291906200084e565b60405180910390a15083600660006101000a81548173ffffffffffffffffffffffffffffffffffffffff021916908373ffffffffffffffffffffffffffffffffffffffff160217905550600660009054906101000a900473ffffffffffffffffffffffffffffffffffffffff1673ffffffffffffffffffffffffffffffffffffffff1663d1af0c7d6040518163ffffffff1660e01b815260040160206040518083038186803b158015620001e757600080fd5b505afa158015620001fc573d6000803e3d6000fd5b505050506040513d601f19601f82011682018060405250810190620002229190620007ea565b600760006101000a81548173ffffffffffffffffffffffffffffffffffffffff021916908373ffffffffffffffffffffffffffffffffffffffff160217905550600660009054906101000a900473ffffffffffffffffffffffffffffffffffffffff1673ffffffffffffffffffffffffffffffffffffffff166372f702f36040518163ffffffff1660e01b815260040160206040518083038186803b158015620002cb57600080fd5b505afa158015620002e0573d6000803e3d6000fd5b505050506040513d601f19601f82011682018060405250810190620003069190620007ea565b600860006101000a81548173ffffffffffffffffffffffffffffffffffffffff021916908373ffffffffffffffffffffffffffffffffffffffff160217905550600860009054906101000a900473ffffffffffffffffffffffffffffffffffffffff1673ffffffffffffffffffffffffffffffffffffffff16630dfe16816040518163ffffffff1660e01b815260040160206040518083038186803b158015620003af57600080fd5b505afa158015620003c4573d6000803e3d6000fd5b505050506040513d601f19601f82011682018060405250810190620003ea91906200070a565b600960006101000a81548173ffffffffffffffffffffffffffffffffffffffff021916908373ffffffffffffffffffffffffffffffffffffffff160217905550600860009054906101000a900473ffffffffffffffffffffffffffffffffffffffff1673ffffffffffffffffffffffffffffffffffffffff1663d21220a76040518163ffffffff1660e01b815260040160206040518083038186803b1580156200049357600080fd5b505afa158015620004a8573d6000803e3d6000fd5b505050506040513d601f19601f82011682018060405250810190620004ce91906200070a565b600a60006101000a81548173ffffffffffffffffffffffffffffffffffffffff021916908373ffffffffffffffffffffffffffffffffffffffff16021790555081600b9080519060200190620005269291906200058c565b5080600c90805190602001906200053f9291906200058c565b5082600d60006101000a81548173ffffffffffffffffffffffffffffffffffffffff021916908373ffffffffffffffffffffffffffffffffffffffff160217905550505050505062000a21565b82805482825590600052602060002090810192821562000608579160200282015b82811115620006075782518260006101000a81548173ffffffffffffffffffffffffffffffffffffffff021916908373ffffffffffffffffffffffffffffffffffffffff16021790555091602001919060010190620005ad565b5b5090506200061791906200061b565b5090565b5b80821115620006365760008160009055506001016200061c565b5090565b6000620006516200064b84620008c6565b6200089d565b905080838252602082019050828560208602820111156200067157600080fd5b60005b85811015620006a557816200068a8882620006af565b84526020840193506020830192505060018101905062000674565b5050509392505050565b600081519050620006c081620009ed565b92915050565b600082601f830112620006d857600080fd5b8151620006ea8482602086016200063a565b91505092915050565b600081519050620007048162000a07565b92915050565b6000602082840312156200071d57600080fd5b60006200072d84828501620006af565b91505092915050565b600080600080600060a086880312156200074f57600080fd5b60006200075f88828901620006af565b95505060206200077288828901620006af565b94505060406200078588828901620006af565b935050606086015167ffffffffffffffff811115620007a357600080fd5b620007b188828901620006c6565b925050608086015167ffffffffffffffff811115620007cf57600080fd5b620007dd88828901620006c6565b9150509295509295909350565b600060208284031215620007fd57600080fd5b60006200080d84828501620006f3565b91505092915050565b620008218162000906565b82525050565b600062000836601983620008f5565b91506200084382620009c4565b602082019050919050565b600060408201905062000865600083018562000816565b62000874602083018462000816565b9392505050565b60006020820190508181036000830152620008968162000827565b9050919050565b6000620008a9620008bc565b9050620008b782826200094e565b919050565b6000604051905090565b600067ffffffffffffffff821115620008e457620008e362000984565b5b602082029050602081019050919050565b600082825260208201905092915050565b600062000913826200092e565b9050919050565b6000620009278262000906565b9050919050565b600073ffffffffffffffffffffffffffffffffffffffff82169050919050565b6200095982620009b3565b810181811067ffffffffffffffff821117156200097b576200097a62000984565b5b80604052505050565b7f4e487b7100000000000000000000000000000000000000000000000000000000600052604160045260246000fd5b6000601f19601f8301169050919050565b7f4f776e657220616464726573732063616e6e6f74206265203000000000000000600082015250565b620009f88162000906565b811462000a0457600080fd5b50565b62000a12816200091a565b811462000a1e57600080fd5b50565b613c2f8062000a316000396000f3fe608060405234801561001057600080fd5b506004361061021c5760003560e01c806364b87a7011610125578063a9059cbb116100ad578063d48406411161007c578063d484064114610609578063dd62ed3e14610627578063e86dea4a14610657578063f887ea4014610675578063fd3865e1146106935761021c565b8063a9059cbb1461056f578063b6b55f251461059f578063c9ce0e8c146105bb578063d1af0c7d146105eb5761021c565b806379ba5097116100f457806379ba509714610503578063853828b61461050d5780638c00ca9d146105175780638da5cb5b1461053357806395d89b41146105515761021c565b806364b87a70146104675780636a0341b81461048557806370a08231146104b557806372f702f3146104e55761021c565b806323b872dd116101a8578063313ce56711610177578063313ce567146103c15780633f02def8146103df57806353a47bb71461040f5780635d057bf41461042d5780635f8e9e91146104375761021c565b806323b872dd1461033b5780632740c1971461036b57806327b74a5d146103875780632e1a7d4d146103a55761021c565b80630b138d52116101ef5780630b138d52146102a9578063147bd3af146102c55780631627540c146102e3578063180b0d7e146102ff57806318160ddd1461031d5761021c565b806306fdde0314610221578063095ea7b31461023f5780630962ef791461026f5780630ab8985b1461028b575b600080fd5b6102296106b1565b6040516102369190613313565b60405180910390f35b61025960048036038101906102549190612cd7565b6106ea565b604051610266919061328c565b60405180910390f35b61028960048036038101906102849190612df2565b610701565b005b6102936114ba565b6040516102a091906132a7565b60405180910390f35b6102c360048036038101906102be9190612d13565b6114e0565b005b6102cd611512565b6040516102da9190613475565b60405180910390f35b6102fd60048036038101906102f89190612c23565b611518565b005b61030761159b565b6040516103149190613475565b60405180910390f35b6103256115a1565b6040516103329190613475565b60405180910390f35b61035560048036038101906103509190612c88565b6115a7565b604051610362919061328c565b60405180910390f35b61038560048036038101906103809190612e44565b611772565b005b61038f61177e565b60405161039c9190613475565b60405180910390f35b6103bf60048036038101906103ba9190612df2565b611784565b005b6103c9611aff565b6040516103d6919061351a565b60405180910390f35b6103f960048036038101906103f49190612df2565b611b04565b604051610406919061316a565b60405180910390f35b610417611b43565b604051610424919061316a565b60405180910390f35b610435611b69565b005b610451600480360381019061044c9190612df2565b611dbd565b60405161045e9190613475565b60405180910390f35b61046f611df5565b60405161047c91906132f8565b60405180910390f35b61049f600480360381019061049a9190612df2565b611e1b565b6040516104ac919061316a565b60405180910390f35b6104cf60048036038101906104ca9190612c23565b611e5a565b6040516104dc9190613475565b60405180910390f35b6104ed611e72565b6040516104fa91906132c2565b60405180910390f35b61050b611e98565b005b610515612049565b005b610531600480360381019061052c9190612e44565b612123565b005b61053b61213d565b604051610548919061316a565b60405180910390f35b610559612161565b6040516105669190613313565b60405180910390f35b61058960048036038101906105849190612cd7565b61219a565b604051610596919061328c565b60405180910390f35b6105b960048036038101906105b49190612df2565b6121b1565b005b6105d560048036038101906105d09190612df2565b612363565b6040516105e29190613475565b60405180910390f35b6105f361239a565b60405161060091906132a7565b60405180910390f35b6106116123c0565b60405161061e9190613475565b60405180910390f35b610641600480360381019061063c9190612c4c565b6123c6565b60405161064e9190613475565b60405180910390f35b61065f6123eb565b60405161066c9190613475565b60405180910390f35b61067d6123f1565b60405161068a91906132dd565b60405180910390f35b61069b612417565b6040516106a891906132a7565b60405180910390f35b6040518060400160405280601081526020017f4661726d626f7420465020546f6b656e0000000000000000000000000000000081525081565b60006106f733848461243d565b6001905092915050565b8042811015610745576040517f08c379a000000000000000000000000000000000000000000000000000000000815260040161073c90613395565b60405180910390fd5b600660009054906101000a900473ffffffffffffffffffffffffffffffffffffffff1673ffffffffffffffffffffffffffffffffffffffff16633d18b9126040518163ffffffff1660e01b8152600401600060405180830381600087803b1580156107af57600080fd5b505af11580156107c3573d6000803e3d6000fd5b505050506000600760009054906101000a900473ffffffffffffffffffffffffffffffffffffffff1673ffffffffffffffffffffffffffffffffffffffff166370a08231306040518263ffffffff1660e01b8152600401610824919061316a565b60206040518083038186803b15801561083c57600080fd5b505afa158015610850573d6000803e3d6000fd5b505050506040513d601f19601f820116820180604052508101906108749190612e1b565b9050600081141561088557506114b6565b6000601154601054836108989190613667565b6108a29190613636565b90506000600282846108b491906136c1565b6108be9190613636565b905060006002600b8054905010610bdb576000600d60009054906101000a900473ffffffffffffffffffffffffffffffffffffffff1673ffffffffffffffffffffffffffffffffffffffff1663d06ca61f84600b6040518363ffffffff1660e01b815260040161092f929190613490565b60006040518083038186803b15801561094757600080fd5b505afa15801561095b573d6000803e3d6000fd5b505050506040513d6000823e3d601f19601f820116820180604052508101906109849190612d88565b90506000816001835161099791906136c1565b815181106109ce577f4e487b7100000000000000000000000000000000000000000000000000000000600052603260045260246000fd5b60200260200101519050600760009054906101000a900473ffffffffffffffffffffffffffffffffffffffff1673ffffffffffffffffffffffffffffffffffffffff1663095ea7b3600d60009054906101000a900473ffffffffffffffffffffffffffffffffffffffff16866040518363ffffffff1660e01b8152600401610a57929190613263565b602060405180830381600087803b158015610a7157600080fd5b505af1158015610a85573d6000803e3d6000fd5b505050506040513d601f19601f82011682018060405250810190610aa99190612dc9565b506000600d60009054906101000a900473ffffffffffffffffffffffffffffffffffffffff1673ffffffffffffffffffffffffffffffffffffffff166338ed173986600f54600e5486610afc9190613667565b610b069190613636565b600b308e6040518663ffffffff1660e01b8152600401610b2a9594939291906134c0565b600060405180830381600087803b158015610b4457600080fd5b505af1158015610b58573d6000803e3d6000fd5b505050506040513d6000823e3d601f19601f82011682018060405250810190610b819190612d88565b90508060018251610b9291906136c1565b81518110610bc9577f4e487b7100000000000000000000000000000000000000000000000000000000600052603260045260246000fd5b60200260200101519350505050610bdf565b8190505b60006002600c8054905010610efa576000600d60009054906101000a900473ffffffffffffffffffffffffffffffffffffffff1673ffffffffffffffffffffffffffffffffffffffff1663d06ca61f85600c6040518363ffffffff1660e01b8152600401610c4e929190613490565b60006040518083038186803b158015610c6657600080fd5b505afa158015610c7a573d6000803e3d6000fd5b505050506040513d6000823e3d601f19601f82011682018060405250810190610ca39190612d88565b905060008160018351610cb691906136c1565b81518110610ced577f4e487b7100000000000000000000000000000000000000000000000000000000600052603260045260246000fd5b60200260200101519050600760009054906101000a900473ffffffffffffffffffffffffffffffffffffffff1673ffffffffffffffffffffffffffffffffffffffff1663095ea7b3600d60009054906101000a900473ffffffffffffffffffffffffffffffffffffffff16876040518363ffffffff1660e01b8152600401610d76929190613263565b602060405180830381600087803b158015610d9057600080fd5b505af1158015610da4573d6000803e3d6000fd5b505050506040513d601f19601f82011682018060405250810190610dc89190612dc9565b506000600d60009054906101000a900473ffffffffffffffffffffffffffffffffffffffff1673ffffffffffffffffffffffffffffffffffffffff166338ed173987600f54600e5486610e1b9190613667565b610e259190613636565b600c308f6040518663ffffffff1660e01b8152600401610e499594939291906134c0565b600060405180830381600087803b158015610e6357600080fd5b505af1158015610e77573d6000803e3d6000fd5b505050506040513d6000823e3d601f19601f82011682018060405250810190610ea09190612d88565b90508060018251610eb191906136c1565b81518110610ee8577f4e487b7100000000000000000000000000000000000000000000000000000000600052603260045260246000fd5b60200260200101519350505050610efe565b8290505b600960009054906101000a900473ffffffffffffffffffffffffffffffffffffffff1673ffffffffffffffffffffffffffffffffffffffff1663095ea7b3600d60009054906101000a900473ffffffffffffffffffffffffffffffffffffffff16846040518363ffffffff1660e01b8152600401610f7d929190613263565b602060405180830381600087803b158015610f9757600080fd5b505af1158015610fab573d6000803e3d6000fd5b505050506040513d601f19601f82011682018060405250810190610fcf9190612dc9565b50600a60009054906101000a900473ffffffffffffffffffffffffffffffffffffffff1673ffffffffffffffffffffffffffffffffffffffff1663095ea7b3600d60009054906101000a900473ffffffffffffffffffffffffffffffffffffffff16836040518363ffffffff1660e01b815260040161104f929190613263565b602060405180830381600087803b15801561106957600080fd5b505af115801561107d573d6000803e3d6000fd5b505050506040513d601f19601f820116820180604052508101906110a19190612dc9565b50600d60009054906101000a900473ffffffffffffffffffffffffffffffffffffffff1673ffffffffffffffffffffffffffffffffffffffff1663e8e33700600960009054906101000a900473ffffffffffffffffffffffffffffffffffffffff16600a60009054906101000a900473ffffffffffffffffffffffffffffffffffffffff168585600f54600e54896111399190613667565b6111439190613636565b600f54600e54896111549190613667565b61115e9190613636565b308f6040518963ffffffff1660e01b81526004016111839897969594939291906131e5565b606060405180830381600087803b15801561119d57600080fd5b505af11580156111b1573d6000803e3d6000fd5b505050506040513d601f19601f820116820180604052508101906111d59190612e80565b5050506000600860009054906101000a900473ffffffffffffffffffffffffffffffffffffffff1673ffffffffffffffffffffffffffffffffffffffff166370a08231306040518263ffffffff1660e01b8152600401611235919061316a565b60206040518083038186803b15801561124d57600080fd5b505afa158015611261573d6000803e3d6000fd5b505050506040513d601f19601f820116820180604052508101906112859190612e1b565b9050600860009054906101000a900473ffffffffffffffffffffffffffffffffffffffff1673ffffffffffffffffffffffffffffffffffffffff1663095ea7b3600660009054906101000a900473ffffffffffffffffffffffffffffffffffffffff16836040518363ffffffff1660e01b8152600401611306929190613263565b602060405180830381600087803b15801561132057600080fd5b505af1158015611334573d6000803e3d6000fd5b505050506040513d601f19601f820116820180604052508101906113589190612dc9565b50600660009054906101000a900473ffffffffffffffffffffffffffffffffffffffff1673ffffffffffffffffffffffffffffffffffffffff1663a694fc3a826040518263ffffffff1660e01b81526004016113b49190613475565b600060405180830381600087803b1580156113ce57600080fd5b505af11580156113e2573d6000803e3d6000fd5b5050505080600560008282546113f891906135e0565b92505081905550600760009054906101000a900473ffffffffffffffffffffffffffffffffffffffff1673ffffffffffffffffffffffffffffffffffffffff1663a9059cbb33876040518363ffffffff1660e01b815260040161145c929190613263565b602060405180830381600087803b15801561147657600080fd5b505af115801561148a573d6000803e3d6000fd5b505050506040513d601f19601f820116820180604052508101906114ae9190612dc9565b505050505050505b5050565b600a60009054906101000a900473ffffffffffffffffffffffffffffffffffffffff1681565b6114e8612528565b8383600b91906114f9929190612a32565b508181600c919061150b929190612a32565b5050505050565b600e5481565b611520612528565b80600160006101000a81548173ffffffffffffffffffffffffffffffffffffffff021916908373ffffffffffffffffffffffffffffffffffffffff1602179055507f906a1c6bd7e3091ea86693dd029a831c19049ce77f1dce2ce0bab1cacbabce2281604051611590919061316a565b60405180910390a150565b60115481565b60025481565b60007fffffffffffffffffffffffffffffffffffffffffffffffffffffffffffffffff600460008673ffffffffffffffffffffffffffffffffffffffff1673ffffffffffffffffffffffffffffffffffffffff16815260200190815260200160002060003373ffffffffffffffffffffffffffffffffffffffff1673ffffffffffffffffffffffffffffffffffffffff168152602001908152602001600020541461175c576116db82600460008773ffffffffffffffffffffffffffffffffffffffff1673ffffffffffffffffffffffffffffffffffffffff16815260200190815260200160002060003373ffffffffffffffffffffffffffffffffffffffff1673ffffffffffffffffffffffffffffffffffffffff168152602001908152602001600020546125b890919063ffffffff16565b600460008673ffffffffffffffffffffffffffffffffffffffff1673ffffffffffffffffffffffffffffffffffffffff16815260200190815260200160002060003373ffffffffffffffffffffffffffffffffffffffff1673ffffffffffffffffffffffffffffffffffffffff168152602001908152602001600020819055505b611767848484612611565b600190509392505050565b61177a612528565b5050565b60055481565b60003073ffffffffffffffffffffffffffffffffffffffff1663c9ce0e8c836040518263ffffffff1660e01b81526004016117bf9190613475565b60206040518083038186803b1580156117d757600080fd5b505afa1580156117eb573d6000803e3d6000fd5b505050506040513d601f19601f8201168201806040525081019061180f9190612e1b565b905080600360003373ffffffffffffffffffffffffffffffffffffffff1673ffffffffffffffffffffffffffffffffffffffff168152602001908152602001600020541015611893576040517f08c379a000000000000000000000000000000000000000000000000000000000815260040161188a90613455565b60405180910390fd5b6000600860009054906101000a900473ffffffffffffffffffffffffffffffffffffffff1673ffffffffffffffffffffffffffffffffffffffff166370a08231306040518263ffffffff1660e01b81526004016118f0919061316a565b60206040518083038186803b15801561190857600080fd5b505afa15801561191c573d6000803e3d6000fd5b505050506040513d601f19601f820116820180604052508101906119409190612e1b565b9050808311156119e357600660009054906101000a900473ffffffffffffffffffffffffffffffffffffffff1673ffffffffffffffffffffffffffffffffffffffff16632e1a7d4d828561199491906136c1565b6040518263ffffffff1660e01b81526004016119b09190613475565b600060405180830381600087803b1580156119ca57600080fd5b505af11580156119de573d6000803e3d6000fd5b505050505b6000600860009054906101000a900473ffffffffffffffffffffffffffffffffffffffff1673ffffffffffffffffffffffffffffffffffffffff1663a9059cbb33866040518363ffffffff1660e01b8152600401611a42929190613263565b602060405180830381600087803b158015611a5c57600080fd5b505af1158015611a70573d6000803e3d6000fd5b505050506040513d601f19601f82011682018060405250810190611a949190612dc9565b905080611ad6576040517f08c379a0000000000000000000000000000000000000000000000000000000008152600401611acd90613435565b60405180910390fd5b611ae033846127a5565b8360056000828254611af291906136c1565b9250508190555050505050565b601281565b600c8181548110611b1457600080fd5b906000526020600020016000915054906101000a900473ffffffffffffffffffffffffffffffffffffffff1681565b600160009054906101000a900473ffffffffffffffffffffffffffffffffffffffff1681565b6000600860009054906101000a900473ffffffffffffffffffffffffffffffffffffffff1673ffffffffffffffffffffffffffffffffffffffff166370a08231306040518263ffffffff1660e01b8152600401611bc6919061316a565b60206040518083038186803b158015611bde57600080fd5b505afa158015611bf2573d6000803e3d6000fd5b505050506040513d601f19601f82011682018060405250810190611c169190612e1b565b905060008111611c5b576040517f08c379a0000000000000000000000000000000000000000000000000000000008152600401611c52906133f5565b60405180910390fd5b600860009054906101000a900473ffffffffffffffffffffffffffffffffffffffff1673ffffffffffffffffffffffffffffffffffffffff1663095ea7b3600660009054906101000a900473ffffffffffffffffffffffffffffffffffffffff16836040518363ffffffff1660e01b8152600401611cda929190613263565b602060405180830381600087803b158015611cf457600080fd5b505af1158015611d08573d6000803e3d6000fd5b505050506040513d601f19601f82011682018060405250810190611d2c9190612dc9565b50600660009054906101000a900473ffffffffffffffffffffffffffffffffffffffff1673ffffffffffffffffffffffffffffffffffffffff1663a694fc3a826040518263ffffffff1660e01b8152600401611d889190613475565b600060405180830381600087803b158015611da257600080fd5b505af1158015611db6573d6000803e3d6000fd5b5050505050565b6000806002541415611dd25760009050611df0565b60025460055483611de39190613667565b611ded9190613636565b90505b919050565b600660009054906101000a900473ffffffffffffffffffffffffffffffffffffffff1681565b600b8181548110611e2b57600080fd5b906000526020600020016000915054906101000a900473ffffffffffffffffffffffffffffffffffffffff1681565b60036020528060005260406000206000915090505481565b600860009054906101000a900473ffffffffffffffffffffffffffffffffffffffff1681565b600160009054906101000a900473ffffffffffffffffffffffffffffffffffffffff1673ffffffffffffffffffffffffffffffffffffffff163373ffffffffffffffffffffffffffffffffffffffff1614611f28576040517f08c379a0000000000000000000000000000000000000000000000000000000008152600401611f1f90613355565b60405180910390fd5b7fb532073b38c83145e3e5135377a08bf9aab55bc0fd7c1179cd4fb995d2a5159c60008054906101000a900473ffffffffffffffffffffffffffffffffffffffff16600160009054906101000a900473ffffffffffffffffffffffffffffffffffffffff16604051611f9b929190613185565b60405180910390a1600160009054906101000a900473ffffffffffffffffffffffffffffffffffffffff166000806101000a81548173ffffffffffffffffffffffffffffffffffffffff021916908373ffffffffffffffffffffffffffffffffffffffff1602179055506000600160006101000a81548173ffffffffffffffffffffffffffffffffffffffff021916908373ffffffffffffffffffffffffffffffffffffffff160217905550565b6000600360003373ffffffffffffffffffffffffffffffffffffffff1673ffffffffffffffffffffffffffffffffffffffff16815260200190815260200160002054116120cb576040517f08c379a00000000000000000000000000000000000000000000000000000000081526004016120c2906133b5565b60405180910390fd5b6000612115600360003373ffffffffffffffffffffffffffffffffffffffff1673ffffffffffffffffffffffffffffffffffffffff16815260200190815260200160002054611dbd565b905061212081611784565b50565b61212b612528565b81600e8190555080600f819055505050565b60008054906101000a900473ffffffffffffffffffffffffffffffffffffffff1681565b6040518060400160405280600281526020017f465000000000000000000000000000000000000000000000000000000000000081525081565b60006121a7338484612611565b6001905092915050565b6000600860009054906101000a900473ffffffffffffffffffffffffffffffffffffffff1673ffffffffffffffffffffffffffffffffffffffff166323b872dd3330856040518463ffffffff1660e01b8152600401612212939291906131ae565b602060405180830381600087803b15801561222c57600080fd5b505af1158015612240573d6000803e3d6000fd5b505050506040513d601f19601f820116820180604052508101906122649190612dc9565b9050806122a6576040517f08c379a000000000000000000000000000000000000000000000000000000000815260040161229d90613415565b60405180910390fd5b60003073ffffffffffffffffffffffffffffffffffffffff1663c9ce0e8c846040518263ffffffff1660e01b81526004016122e19190613475565b60206040518083038186803b1580156122f957600080fd5b505afa15801561230d573d6000803e3d6000fd5b505050506040513d601f19601f820116820180604052508101906123319190612e1b565b905061233d33826128bf565b826005600082825461234f91906135e0565b9250508190555061235e611b69565b505050565b600080600554141561237757819050612395565b600554600254836123889190613667565b6123929190613636565b90505b919050565b600760009054906101000a900473ffffffffffffffffffffffffffffffffffffffff1681565b600f5481565b6004602052816000526040600020602052806000526040600020600091509150505481565b60105481565b600d60009054906101000a900473ffffffffffffffffffffffffffffffffffffffff1681565b600960009054906101000a900473ffffffffffffffffffffffffffffffffffffffff1681565b80600460008573ffffffffffffffffffffffffffffffffffffffff1673ffffffffffffffffffffffffffffffffffffffff16815260200190815260200160002060008473ffffffffffffffffffffffffffffffffffffffff1673ffffffffffffffffffffffffffffffffffffffff168152602001908152602001600020819055508173ffffffffffffffffffffffffffffffffffffffff168373ffffffffffffffffffffffffffffffffffffffff167f8c5be1e5ebec7d5bd14f71427d1e84f3dd0314c0f7b2291e5b200ac8c7c3b9258360405161251b9190613475565b60405180910390a3505050565b60008054906101000a900473ffffffffffffffffffffffffffffffffffffffff1673ffffffffffffffffffffffffffffffffffffffff163373ffffffffffffffffffffffffffffffffffffffff16146125b6576040517f08c379a00000000000000000000000000000000000000000000000000000000081526004016125ad906133d5565b60405180910390fd5b565b60008282846125c791906136c1565b915081111561260b576040517f08c379a000000000000000000000000000000000000000000000000000000000815260040161260290613335565b60405180910390fd5b92915050565b61266381600360008673ffffffffffffffffffffffffffffffffffffffff1673ffffffffffffffffffffffffffffffffffffffff168152602001908152602001600020546125b890919063ffffffff16565b600360008573ffffffffffffffffffffffffffffffffffffffff1673ffffffffffffffffffffffffffffffffffffffff168152602001908152602001600020819055506126f881600360008573ffffffffffffffffffffffffffffffffffffffff1673ffffffffffffffffffffffffffffffffffffffff168152602001908152602001600020546129d990919063ffffffff16565b600360008473ffffffffffffffffffffffffffffffffffffffff1673ffffffffffffffffffffffffffffffffffffffff168152602001908152602001600020819055508173ffffffffffffffffffffffffffffffffffffffff168373ffffffffffffffffffffffffffffffffffffffff167fddf252ad1be2c89b69c2b068fc378daa952ba7f163c4a11628f55a4df523b3ef836040516127989190613475565b60405180910390a3505050565b6127f781600360008573ffffffffffffffffffffffffffffffffffffffff1673ffffffffffffffffffffffffffffffffffffffff168152602001908152602001600020546125b890919063ffffffff16565b600360008473ffffffffffffffffffffffffffffffffffffffff1673ffffffffffffffffffffffffffffffffffffffff1681526020019081526020016000208190555061284f816002546125b890919063ffffffff16565b600281905550600073ffffffffffffffffffffffffffffffffffffffff168273ffffffffffffffffffffffffffffffffffffffff167fddf252ad1be2c89b69c2b068fc378daa952ba7f163c4a11628f55a4df523b3ef836040516128b39190613475565b60405180910390a35050565b6128d4816002546129d990919063ffffffff16565b60028190555061292c81600360008573ffffffffffffffffffffffffffffffffffffffff1673ffffffffffffffffffffffffffffffffffffffff168152602001908152602001600020546129d990919063ffffffff16565b600360008473ffffffffffffffffffffffffffffffffffffffff1673ffffffffffffffffffffffffffffffffffffffff168152602001908152602001600020819055508173ffffffffffffffffffffffffffffffffffffffff16600073ffffffffffffffffffffffffffffffffffffffff167fddf252ad1be2c89b69c2b068fc378daa952ba7f163c4a11628f55a4df523b3ef836040516129cd9190613475565b60405180910390a35050565b60008282846129e891906135e0565b9150811015612a2c576040517f08c379a0000000000000000000000000000000000000000000000000000000008152600401612a2390613375565b60405180910390fd5b92915050565b828054828255906000526020600020908101928215612ac1579160200282015b82811115612ac057823573ffffffffffffffffffffffffffffffffffffffff168260006101000a81548173ffffffffffffffffffffffffffffffffffffffff021916908373ffffffffffffffffffffffffffffffffffffffff16021790555091602001919060010190612a52565b5b509050612ace9190612ad2565b5090565b5b80821115612aeb576000816000905550600101612ad3565b5090565b6000612b02612afd8461355a565b613535565b90508083825260208201905082856020860282011115612b2157600080fd5b60005b85811015612b515781612b378882612c0e565b845260208401935060208301925050600181019050612b24565b5050509392505050565b600081359050612b6a81613bb4565b92915050565b60008083601f840112612b8257600080fd5b8235905067ffffffffffffffff811115612b9b57600080fd5b602083019150836020820283011115612bb357600080fd5b9250929050565b600082601f830112612bcb57600080fd5b8151612bdb848260208601612aef565b91505092915050565b600081519050612bf381613bcb565b92915050565b600081359050612c0881613be2565b92915050565b600081519050612c1d81613be2565b92915050565b600060208284031215612c3557600080fd5b6000612c4384828501612b5b565b91505092915050565b60008060408385031215612c5f57600080fd5b6000612c6d85828601612b5b565b9250506020612c7e85828601612b5b565b9150509250929050565b600080600060608486031215612c9d57600080fd5b6000612cab86828701612b5b565b9350506020612cbc86828701612b5b565b9250506040612ccd86828701612bf9565b9150509250925092565b60008060408385031215612cea57600080fd5b6000612cf885828601612b5b565b9250506020612d0985828601612bf9565b9150509250929050565b60008060008060408587031215612d2957600080fd5b600085013567ffffffffffffffff811115612d4357600080fd5b612d4f87828801612b70565b9450945050602085013567ffffffffffffffff811115612d6e57600080fd5b612d7a87828801612b70565b925092505092959194509250565b600060208284031215612d9a57600080fd5b600082015167ffffffffffffffff811115612db457600080fd5b612dc084828501612bba565b91505092915050565b600060208284031215612ddb57600080fd5b6000612de984828501612be4565b91505092915050565b600060208284031215612e0457600080fd5b6000612e1284828501612bf9565b91505092915050565b600060208284031215612e2d57600080fd5b6000612e3b84828501612c0e565b91505092915050565b60008060408385031215612e5757600080fd5b6000612e6585828601612bf9565b9250506020612e7685828601612bf9565b9150509250929050565b600080600060608486031215612e9557600080fd5b6000612ea386828701612c0e565b9350506020612eb486828701612c0e565b9250506040612ec586828701612c0e565b9150509250925092565b6000612edb8383612ee7565b60208301905092915050565b612ef081613715565b82525050565b612eff81613715565b82525050565b6000612f108261359b565b612f1a81856135be565b9350612f2583613586565b8060005b83811015612f5d57612f3a82613905565b612f448882612ecf565b9750612f4f836135b1565b925050600181019050612f29565b5085935050505092915050565b612f7381613727565b82525050565b612f828161376a565b82525050565b612f918161378e565b82525050565b612fa0816137b2565b82525050565b612faf816137d6565b82525050565b6000612fc0826135a6565b612fca81856135cf565b9350612fda8185602086016137fa565b612fe381613918565b840191505092915050565b6000612ffb6015836135cf565b915061300682613936565b602082019050919050565b600061301e6035836135cf565b91506130298261395f565b604082019050919050565b60006130416014836135cf565b915061304c826139ae565b602082019050919050565b60006130646010836135cf565b915061306f826139d7565b602082019050919050565b6000613087601c836135cf565b915061309282613a00565b602082019050919050565b60006130aa602f836135cf565b91506130b582613a29565b604082019050919050565b60006130cd602f836135cf565b91506130d882613a78565b604082019050919050565b60006130f06021836135cf565b91506130fb82613ac7565b604082019050919050565b60006131136024836135cf565b915061311e82613b16565b604082019050919050565b60006131366038836135cf565b915061314182613b65565b604082019050919050565b61315581613753565b82525050565b6131648161375d565b82525050565b600060208201905061317f6000830184612ef6565b92915050565b600060408201905061319a6000830185612ef6565b6131a76020830184612ef6565b9392505050565b60006060820190506131c36000830186612ef6565b6131d06020830185612ef6565b6131dd604083018461314c565b949350505050565b6000610100820190506131fb600083018b612ef6565b613208602083018a612ef6565b613215604083018961314c565b613222606083018861314c565b61322f608083018761314c565b61323c60a083018661314c565b61324960c0830185612ef6565b61325660e083018461314c565b9998505050505050505050565b60006040820190506132786000830185612ef6565b613285602083018461314c565b9392505050565b60006020820190506132a16000830184612f6a565b92915050565b60006020820190506132bc6000830184612f79565b92915050565b60006020820190506132d76000830184612f88565b92915050565b60006020820190506132f26000830184612f97565b92915050565b600060208201905061330d6000830184612fa6565b92915050565b6000602082019050818103600083015261332d8184612fb5565b905092915050565b6000602082019050818103600083015261334e81612fee565b9050919050565b6000602082019050818103600083015261336e81613011565b9050919050565b6000602082019050818103600083015261338e81613034565b9050919050565b600060208201905081810360008301526133ae81613057565b9050919050565b600060208201905081810360008301526133ce8161307a565b9050919050565b600060208201905081810360008301526133ee8161309d565b9050919050565b6000602082019050818103600083015261340e816130c0565b9050919050565b6000602082019050818103600083015261342e816130e3565b9050919050565b6000602082019050818103600083015261344e81613106565b9050919050565b6000602082019050818103600083015261346e81613129565b9050919050565b600060208201905061348a600083018461314c565b92915050565b60006040820190506134a5600083018561314c565b81810360208301526134b78184612f05565b90509392505050565b600060a0820190506134d5600083018861314c565b6134e2602083018761314c565b81810360408301526134f48186612f05565b90506135036060830185612ef6565b613510608083018461314c565b9695505050505050565b600060208201905061352f600083018461315b565b92915050565b600061353f613550565b905061354b8282613847565b919050565b6000604051905090565b600067ffffffffffffffff821115613575576135746138d6565b5b602082029050602081019050919050565b60008190508160005260206000209050919050565b600081549050919050565b600081519050919050565b6000600182019050919050565b600082825260208201905092915050565b600082825260208201905092915050565b60006135eb82613753565b91506135f683613753565b9250827fffffffffffffffffffffffffffffffffffffffffffffffffffffffffffffffff0382111561362b5761362a613878565b5b828201905092915050565b600061364182613753565b915061364c83613753565b92508261365c5761365b6138a7565b5b828204905092915050565b600061367282613753565b915061367d83613753565b9250817fffffffffffffffffffffffffffffffffffffffffffffffffffffffffffffffff04831182151516156136b6576136b5613878565b5b828202905092915050565b60006136cc82613753565b91506136d783613753565b9250828210156136ea576136e9613878565b5b828203905092915050565b600073ffffffffffffffffffffffffffffffffffffffff82169050919050565b600061372082613733565b9050919050565b60008115159050919050565b600073ffffffffffffffffffffffffffffffffffffffff82169050919050565b6000819050919050565b600060ff82169050919050565b60006137758261377c565b9050919050565b600061378782613733565b9050919050565b6000613799826137a0565b9050919050565b60006137ab82613733565b9050919050565b60006137bd826137c4565b9050919050565b60006137cf82613733565b9050919050565b60006137e1826137e8565b9050919050565b60006137f382613733565b9050919050565b60005b838110156138185780820151818401526020810190506137fd565b83811115613827576000848401525b50505050565b600061384061383b83613929565b6136f5565b9050919050565b61385082613918565b810181811067ffffffffffffffff8211171561386f5761386e6138d6565b5b80604052505050565b7f4e487b7100000000000000000000000000000000000000000000000000000000600052601160045260246000fd5b7f4e487b7100000000000000000000000000000000000000000000000000000000600052601260045260246000fd5b7f4e487b7100000000000000000000000000000000000000000000000000000000600052604160045260246000fd5b6000613911825461382d565b9050919050565b6000601f19601f8301169050919050565b60008160001c9050919050565b7f64732d6d6174682d7375622d756e646572666c6f770000000000000000000000600082015250565b7f596f75206d757374206265206e6f6d696e61746564206265666f726520796f7560008201527f2063616e20616363657074206f776e6572736869700000000000000000000000602082015250565b7f64732d6d6174682d6164642d6f766572666c6f77000000000000000000000000600082015250565b7f4661726d426f743a204558504952454400000000000000000000000000000000600082015250565b7f43616e6e6f74207769746864726177207a65726f2062616c616e636500000000600082015250565b7f4f6e6c792074686520636f6e7472616374206f776e6572206d6179207065726660008201527f6f726d207468697320616374696f6e0000000000000000000000000000000000602082015250565b7f43616e6e6f7420696e7665737420696e206661726d206265636175736520746f60008201527f6b656e42616c616e636520697320300000000000000000000000000000000000602082015250565b7f5472616e73666572206661696c65642c2061626f7274696e67206465706f736960008201527f7400000000000000000000000000000000000000000000000000000000000000602082015250565b7f5472616e73666572206661696c65642c2061626f7274696e672077697468647260008201527f6177616c00000000000000000000000000000000000000000000000000000000602082015250565b7f43616e6e6f74207769746864726177206d6f7265207468616e2074686520746f60008201527f74616c2062616c616e6365206f6620746865206f776e65720000000000000000602082015250565b613bbd81613715565b8114613bc857600080fd5b50565b613bd481613727565b8114613bdf57600080fd5b50565b613beb81613753565b8114613bf657600080fd5b5056fea264697066735822122074656ba01900125f9e56b21ccba825c106acca089bb21da05a0ff04a3fe4ba9564736f6c63430008040033",
  "linkReferences": {},
  "deployedLinkReferences": {}
}