{
  "_format": "hh-sol-artifact-1",
  "contractName": "UbeswapFarmBot",
  "sourceName": "contracts/UbeswapFarmBot.sol",
  "abi": [
    {
      "inputs": [
        {
          "internalType": "address",
          "name": "_owner",
          "type": "address"
        },
        {
          "internalType": "address",
          "name": "_reserveAddress",
          "type": "address"
        },
        {
          "internalType": "address",
          "name": "_stakingRewards",
          "type": "address"
        },
        {
          "internalType": "address",
          "name": "_stakingToken",
          "type": "address"
        },
        {
          "internalType": "address",
          "name": "_revoFees",
          "type": "address"
        },
        {
          "internalType": "address",
          "name": "_router",
          "type": "address"
        },
        {
          "internalType": "address[]",
          "name": "_rewardsTokens",
          "type": "address[]"
        },
        {
          "internalType": "string",
          "name": "_symbol",
          "type": "string"
        }
      ],
      "stateMutability": "nonpayable",
      "type": "constructor"
    },
    {
      "anonymous": false,
      "inputs": [
        {
          "indexed": true,
          "internalType": "address",
          "name": "owner",
          "type": "address"
        },
        {
          "indexed": true,
          "internalType": "address",
          "name": "spender",
          "type": "address"
        },
        {
          "indexed": false,
          "internalType": "uint256",
          "name": "value",
          "type": "uint256"
        }
      ],
      "name": "Approval",
      "type": "event"
    },
    {
      "anonymous": false,
      "inputs": [
        {
          "indexed": true,
          "internalType": "address",
          "name": "by",
          "type": "address"
        },
        {
          "indexed": false,
          "internalType": "uint256",
          "name": "lpStaked",
          "type": "uint256"
        },
        {
          "indexed": false,
          "internalType": "uint256",
          "name": "newLPTotalBalance",
          "type": "uint256"
        },
        {
          "indexed": false,
          "internalType": "uint256[]",
          "name": "compounderFeeAmounts",
          "type": "uint256[]"
        },
        {
          "indexed": false,
          "internalType": "uint256[]",
          "name": "reserveFeeAmounts",
          "type": "uint256[]"
        }
      ],
      "name": "Compound",
      "type": "event"
    },
    {
      "anonymous": false,
      "inputs": [
        {
          "indexed": true,
          "internalType": "address",
          "name": "by",
          "type": "address"
        },
        {
          "indexed": false,
          "internalType": "uint256",
          "name": "lpAmount",
          "type": "uint256"
        }
      ],
      "name": "Deposit",
      "type": "event"
    },
    {
      "anonymous": false,
      "inputs": [
        {
          "indexed": true,
          "internalType": "address",
          "name": "by",
          "type": "address"
        },
        {
          "indexed": true,
          "internalType": "address",
          "name": "to",
          "type": "address"
        }
      ],
      "name": "FeesUpdated",
      "type": "event"
    },
    {
      "anonymous": false,
      "inputs": [
        {
          "indexed": true,
          "internalType": "address",
          "name": "by",
          "type": "address"
        },
        {
          "indexed": true,
          "internalType": "address",
          "name": "newRoleRecipient",
          "type": "address"
        },
        {
          "indexed": false,
          "internalType": "bytes32",
          "name": "role",
          "type": "bytes32"
        }
      ],
      "name": "GrantRole",
      "type": "event"
    },
    {
      "anonymous": false,
      "inputs": [
        {
          "indexed": true,
          "internalType": "address",
          "name": "by",
          "type": "address"
        },
        {
          "indexed": true,
          "internalType": "address",
          "name": "reserveAddress",
          "type": "address"
        }
      ],
      "name": "ReserveUpdated",
      "type": "event"
    },
    {
      "anonymous": false,
      "inputs": [
        {
          "indexed": true,
          "internalType": "bytes32",
          "name": "role",
          "type": "bytes32"
        },
        {
          "indexed": true,
          "internalType": "bytes32",
          "name": "previousAdminRole",
          "type": "bytes32"
        },
        {
          "indexed": true,
          "internalType": "bytes32",
          "name": "newAdminRole",
          "type": "bytes32"
        }
      ],
      "name": "RoleAdminChanged",
      "type": "event"
    },
    {
      "anonymous": false,
      "inputs": [
        {
          "indexed": true,
          "internalType": "bytes32",
          "name": "role",
          "type": "bytes32"
        },
        {
          "indexed": true,
          "internalType": "address",
          "name": "account",
          "type": "address"
        },
        {
          "indexed": true,
          "internalType": "address",
          "name": "sender",
          "type": "address"
        }
      ],
      "name": "RoleGranted",
      "type": "event"
    },
    {
      "anonymous": false,
      "inputs": [
        {
          "indexed": true,
          "internalType": "bytes32",
          "name": "role",
          "type": "bytes32"
        },
        {
          "indexed": true,
          "internalType": "address",
          "name": "account",
          "type": "address"
        },
        {
          "indexed": true,
          "internalType": "address",
          "name": "sender",
          "type": "address"
        }
      ],
      "name": "RoleRevoked",
      "type": "event"
    },
    {
      "anonymous": false,
      "inputs": [
        {
          "indexed": true,
          "internalType": "address",
          "name": "by",
          "type": "address"
        },
        {
          "indexed": false,
          "internalType": "uint256",
          "name": "numerator",
          "type": "uint256"
        },
        {
          "indexed": false,
          "internalType": "uint256",
          "name": "denominator",
          "type": "uint256"
        }
      ],
      "name": "SlippageUpdated",
      "type": "event"
    },
    {
      "anonymous": false,
      "inputs": [
        {
          "indexed": true,
          "internalType": "address",
          "name": "from",
          "type": "address"
        },
        {
          "indexed": true,
          "internalType": "address",
          "name": "to",
          "type": "address"
        },
        {
          "indexed": false,
          "internalType": "uint256",
          "name": "value",
          "type": "uint256"
        }
      ],
      "name": "Transfer",
      "type": "event"
    },
    {
      "anonymous": false,
      "inputs": [
        {
          "indexed": true,
          "internalType": "address",
          "name": "by",
          "type": "address"
        },
        {
          "indexed": false,
          "internalType": "uint256",
          "name": "lpAmount",
          "type": "uint256"
        },
        {
          "indexed": false,
          "internalType": "uint256",
          "name": "fee",
          "type": "uint256"
        }
      ],
      "name": "Withdraw",
      "type": "event"
    },
    {
      "inputs": [],
      "name": "COMPOUNDER_ROLE",
      "outputs": [
        {
          "internalType": "bytes32",
          "name": "",
          "type": "bytes32"
        }
      ],
      "stateMutability": "view",
      "type": "function"
    },
    {
      "inputs": [],
      "name": "DEFAULT_ADMIN_ROLE",
      "outputs": [
        {
          "internalType": "bytes32",
          "name": "",
          "type": "bytes32"
        }
      ],
      "stateMutability": "view",
      "type": "function"
    },
    {
      "inputs": [
        {
          "internalType": "address",
          "name": "owner",
          "type": "address"
        },
        {
          "internalType": "address",
          "name": "spender",
          "type": "address"
        }
      ],
      "name": "allowance",
      "outputs": [
        {
          "internalType": "uint256",
          "name": "",
          "type": "uint256"
        }
      ],
      "stateMutability": "view",
      "type": "function"
    },
    {
      "inputs": [
        {
          "internalType": "address",
          "name": "spender",
          "type": "address"
        },
        {
          "internalType": "uint256",
          "name": "amount",
          "type": "uint256"
        }
      ],
      "name": "approve",
      "outputs": [
        {
          "internalType": "bool",
          "name": "",
          "type": "bool"
        }
      ],
      "stateMutability": "nonpayable",
      "type": "function"
    },
    {
      "inputs": [
        {
          "internalType": "address",
          "name": "account",
          "type": "address"
        }
      ],
      "name": "balanceOf",
      "outputs": [
        {
          "internalType": "uint256",
          "name": "",
          "type": "uint256"
        }
      ],
      "stateMutability": "view",
      "type": "function"
    },
    {
      "inputs": [
        {
          "internalType": "address[][2][]",
          "name": "_paths",
          "type": "address[][2][]"
        },
        {
          "internalType": "uint256[2][]",
          "name": "_minAmountsOut",
          "type": "uint256[2][]"
        },
        {
          "internalType": "uint256",
          "name": "_deadline",
          "type": "uint256"
        }
      ],
      "name": "compound",
      "outputs": [],
      "stateMutability": "nonpayable",
      "type": "function"
    },
    {
      "inputs": [],
      "name": "decimals",
      "outputs": [
        {
          "internalType": "uint8",
          "name": "",
          "type": "uint8"
        }
      ],
      "stateMutability": "view",
      "type": "function"
    },
    {
      "inputs": [
        {
          "internalType": "address",
          "name": "spender",
          "type": "address"
        },
        {
          "internalType": "uint256",
          "name": "subtractedValue",
          "type": "uint256"
        }
      ],
      "name": "decreaseAllowance",
      "outputs": [
        {
          "internalType": "bool",
          "name": "",
          "type": "bool"
        }
      ],
      "stateMutability": "nonpayable",
      "type": "function"
    },
    {
      "inputs": [
        {
          "internalType": "uint256",
          "name": "_lpAmount",
          "type": "uint256"
        }
      ],
      "name": "deposit",
      "outputs": [],
      "stateMutability": "nonpayable",
      "type": "function"
    },
    {
      "inputs": [
        {
          "internalType": "uint256",
          "name": "_lpAmount",
          "type": "uint256"
        }
      ],
      "name": "getFpAmount",
      "outputs": [
        {
          "internalType": "uint256",
          "name": "",
          "type": "uint256"
        }
      ],
      "stateMutability": "view",
      "type": "function"
    },
    {
      "inputs": [
        {
          "internalType": "uint256",
          "name": "_fpAmount",
          "type": "uint256"
        }
      ],
      "name": "getLpAmount",
      "outputs": [
        {
          "internalType": "uint256",
          "name": "",
          "type": "uint256"
        }
      ],
      "stateMutability": "view",
      "type": "function"
    },
    {
      "inputs": [
        {
          "internalType": "bytes32",
          "name": "role",
          "type": "bytes32"
        }
      ],
      "name": "getRoleAdmin",
      "outputs": [
        {
          "internalType": "bytes32",
          "name": "",
          "type": "bytes32"
        }
      ],
      "stateMutability": "view",
      "type": "function"
    },
    {
      "inputs": [
        {
          "internalType": "bytes32",
          "name": "role",
          "type": "bytes32"
        },
        {
          "internalType": "address",
          "name": "account",
          "type": "address"
        }
      ],
      "name": "grantRole",
      "outputs": [],
      "stateMutability": "nonpayable",
      "type": "function"
    },
    {
      "inputs": [
        {
          "internalType": "bytes32",
          "name": "role",
          "type": "bytes32"
        },
        {
          "internalType": "address",
          "name": "account",
          "type": "address"
        }
      ],
      "name": "hasRole",
      "outputs": [
        {
          "internalType": "bool",
          "name": "",
          "type": "bool"
        }
      ],
      "stateMutability": "view",
      "type": "function"
    },
    {
      "inputs": [
        {
          "internalType": "address",
          "name": "spender",
          "type": "address"
        },
        {
          "internalType": "uint256",
          "name": "addedValue",
          "type": "uint256"
        }
      ],
      "name": "increaseAllowance",
      "outputs": [
        {
          "internalType": "bool",
          "name": "",
          "type": "bool"
        }
      ],
      "stateMutability": "nonpayable",
      "type": "function"
    },
    {
      "inputs": [],
      "name": "interestEarnedDenominator",
      "outputs": [
        {
          "internalType": "uint256",
          "name": "",
          "type": "uint256"
        }
      ],
      "stateMutability": "view",
      "type": "function"
    },
    {
      "inputs": [],
      "name": "interestEarnedNumerator",
      "outputs": [
        {
          "internalType": "uint256",
          "name": "",
          "type": "uint256"
        }
      ],
      "stateMutability": "view",
      "type": "function"
    },
    {
      "inputs": [],
      "name": "lpTotalBalance",
      "outputs": [
        {
          "internalType": "uint256",
          "name": "",
          "type": "uint256"
        }
      ],
      "stateMutability": "view",
      "type": "function"
    },
    {
      "inputs": [],
      "name": "maxPerformanceFeeDenominator",
      "outputs": [
        {
          "internalType": "uint256",
          "name": "",
          "type": "uint256"
        }
      ],
      "stateMutability": "view",
      "type": "function"
    },
    {
      "inputs": [],
      "name": "maxPerformanceFeeNumerator",
      "outputs": [
        {
          "internalType": "uint256",
          "name": "",
          "type": "uint256"
        }
      ],
      "stateMutability": "view",
      "type": "function"
    },
    {
      "inputs": [],
      "name": "maxWithdrawalFeeDenominator",
      "outputs": [
        {
          "internalType": "uint256",
          "name": "",
          "type": "uint256"
        }
      ],
      "stateMutability": "view",
      "type": "function"
    },
    {
      "inputs": [],
      "name": "maxWithdrawalFeeNumerator",
      "outputs": [
        {
          "internalType": "uint256",
          "name": "",
          "type": "uint256"
        }
      ],
      "stateMutability": "view",
      "type": "function"
    },
    {
      "inputs": [],
      "name": "name",
      "outputs": [
        {
          "internalType": "string",
          "name": "",
          "type": "string"
        }
      ],
      "stateMutability": "view",
      "type": "function"
    },
    {
      "inputs": [],
      "name": "previewCompounderRewards",
      "outputs": [
        {
          "components": [
            {
              "internalType": "contract IERC20",
              "name": "token",
              "type": "address"
            },
            {
              "internalType": "uint256",
              "name": "amount",
              "type": "uint256"
            }
          ],
          "internalType": "struct TokenAmount[]",
          "name": "compounderFee",
          "type": "tuple[]"
        },
        {
          "components": [
            {
              "internalType": "contract IERC20",
              "name": "token",
              "type": "address"
            },
            {
              "internalType": "uint256",
              "name": "amount",
              "type": "uint256"
            }
          ],
          "internalType": "struct TokenAmount[]",
          "name": "compounderBonus",
          "type": "tuple[]"
        }
      ],
      "stateMutability": "nonpayable",
      "type": "function"
    },
    {
      "inputs": [
        {
          "internalType": "bytes32",
          "name": "role",
          "type": "bytes32"
        },
        {
          "internalType": "address",
          "name": "account",
          "type": "address"
        }
      ],
      "name": "renounceRole",
      "outputs": [],
      "stateMutability": "nonpayable",
      "type": "function"
    },
    {
      "inputs": [],
      "name": "reserveAddress",
      "outputs": [
        {
          "internalType": "address",
          "name": "",
          "type": "address"
        }
      ],
      "stateMutability": "view",
      "type": "function"
    },
    {
      "inputs": [],
      "name": "revoFees",
      "outputs": [
        {
          "internalType": "contract IRevoFees",
          "name": "",
          "type": "address"
        }
      ],
      "stateMutability": "view",
      "type": "function"
    },
    {
      "inputs": [
        {
          "internalType": "bytes32",
          "name": "role",
          "type": "bytes32"
        },
        {
          "internalType": "address",
          "name": "account",
          "type": "address"
        }
      ],
      "name": "revokeRole",
      "outputs": [],
      "stateMutability": "nonpayable",
      "type": "function"
    },
    {
      "inputs": [
        {
          "internalType": "uint256",
          "name": "",
          "type": "uint256"
        }
      ],
      "name": "rewardsTokens",
      "outputs": [
        {
          "internalType": "contract IERC20",
          "name": "",
          "type": "address"
        }
      ],
      "stateMutability": "view",
      "type": "function"
    },
    {
      "inputs": [],
      "name": "router",
      "outputs": [
        {
          "internalType": "contract IUniswapV2Router02",
          "name": "",
          "type": "address"
        }
      ],
      "stateMutability": "view",
      "type": "function"
    },
    {
      "inputs": [],
      "name": "slippageDenominator",
      "outputs": [
        {
          "internalType": "uint256",
          "name": "",
          "type": "uint256"
        }
      ],
      "stateMutability": "view",
      "type": "function"
    },
    {
      "inputs": [],
      "name": "slippageNumerator",
      "outputs": [
        {
          "internalType": "uint256",
          "name": "",
          "type": "uint256"
        }
      ],
      "stateMutability": "view",
      "type": "function"
    },
    {
      "inputs": [],
      "name": "stakingRewards",
      "outputs": [
        {
          "internalType": "contract IMoolaStakingRewards",
          "name": "",
          "type": "address"
        }
      ],
      "stateMutability": "view",
      "type": "function"
    },
    {
      "inputs": [],
      "name": "stakingToken",
      "outputs": [
        {
          "internalType": "contract IUniswapV2Pair",
          "name": "",
          "type": "address"
        }
      ],
      "stateMutability": "view",
      "type": "function"
    },
    {
      "inputs": [],
      "name": "stakingToken0",
      "outputs": [
        {
          "internalType": "contract IERC20",
          "name": "",
          "type": "address"
        }
      ],
      "stateMutability": "view",
      "type": "function"
    },
    {
      "inputs": [],
      "name": "stakingToken1",
      "outputs": [
        {
          "internalType": "contract IERC20",
          "name": "",
          "type": "address"
        }
      ],
      "stateMutability": "view",
      "type": "function"
    },
    {
      "inputs": [
        {
          "internalType": "bytes4",
          "name": "interfaceId",
          "type": "bytes4"
        }
      ],
      "name": "supportsInterface",
      "outputs": [
        {
          "internalType": "bool",
          "name": "",
          "type": "bool"
        }
      ],
      "stateMutability": "view",
      "type": "function"
    },
    {
      "inputs": [],
      "name": "symbol",
      "outputs": [
        {
          "internalType": "string",
          "name": "",
          "type": "string"
        }
      ],
      "stateMutability": "view",
      "type": "function"
    },
    {
      "inputs": [],
      "name": "totalSupply",
      "outputs": [
        {
          "internalType": "uint256",
          "name": "",
          "type": "uint256"
        }
      ],
      "stateMutability": "view",
      "type": "function"
    },
    {
      "inputs": [
        {
          "internalType": "address",
          "name": "recipient",
          "type": "address"
        },
        {
          "internalType": "uint256",
          "name": "amount",
          "type": "uint256"
        }
      ],
      "name": "transfer",
      "outputs": [
        {
          "internalType": "bool",
          "name": "",
          "type": "bool"
        }
      ],
      "stateMutability": "nonpayable",
      "type": "function"
    },
    {
      "inputs": [
        {
          "internalType": "address",
          "name": "sender",
          "type": "address"
        },
        {
          "internalType": "address",
          "name": "recipient",
          "type": "address"
        },
        {
          "internalType": "uint256",
          "name": "amount",
          "type": "uint256"
        }
      ],
      "name": "transferFrom",
      "outputs": [
        {
          "internalType": "bool",
          "name": "",
          "type": "bool"
        }
      ],
      "stateMutability": "nonpayable",
      "type": "function"
    },
    {
      "inputs": [
        {
          "internalType": "address",
          "name": "_revoFees",
          "type": "address"
        }
      ],
      "name": "updateFees",
      "outputs": [],
      "stateMutability": "nonpayable",
      "type": "function"
    },
    {
      "inputs": [
        {
          "internalType": "address",
          "name": "_reserveAddress",
          "type": "address"
        }
      ],
      "name": "updateReserveAddress",
      "outputs": [],
      "stateMutability": "nonpayable",
      "type": "function"
    },
    {
      "inputs": [
        {
          "internalType": "uint256",
          "name": "_slippageNumerator",
          "type": "uint256"
        },
        {
          "internalType": "uint256",
          "name": "_slippageDenominator",
          "type": "uint256"
        }
      ],
      "name": "updateSlippage",
      "outputs": [],
      "stateMutability": "nonpayable",
      "type": "function"
    },
    {
      "inputs": [
        {
          "internalType": "uint256",
          "name": "_lpAmount",
          "type": "uint256"
        }
      ],
      "name": "withdraw",
      "outputs": [],
      "stateMutability": "nonpayable",
      "type": "function"
    },
    {
      "inputs": [],
      "name": "withdrawAll",
      "outputs": [],
      "stateMutability": "nonpayable",
      "type": "function"
    }
  ],
  "bytecode": "0x60806040526127106008556063600f55606460105560286012556103e860135560196014556127106015553480156200003757600080fd5b506040516200513a3803806200513a8339810160408190526200005a91620005b4565b60408051808201909152600d8082526c2932bb37902328102a37b5b2b760991b6020830190815283916200009191600391620003e0565b508051620000a7906004906020840190620003e0565b5050600980546001600160a01b0319166001600160a01b0389161790555060005b82518110156200014557600a838281518110620000f557634e487b7160e01b600052603260045260246000fd5b60209081029190910181015182546001810184556000938452919092200180546001600160a01b0319166001600160a01b03909216919091179055806200013c81620007c9565b915050620000c8565b50601180546001600160a01b038087166001600160a01b031992831617909255600b8054928816929091168217905560408051630dfe168160e01b81529051630dfe168191600480820192602092909190829003018186803b158015620001ab57600080fd5b505afa158015620001c0573d6000803e3d6000fd5b505050506040513d601f19601f82011682018060405250810190620001e6919062000593565b600c80546001600160a01b0319166001600160a01b03928316179055600b546040805163d21220a760e01b81529051919092169163d21220a7916004808301926020929190829003018186803b1580156200024057600080fd5b505afa15801562000255573d6000803e3d6000fd5b505050506040513d601f19601f820116820180604052508101906200027b919062000593565b600d80546001600160a01b03199081166001600160a01b03938416179091556016805482168a8416179055600e8054909116918516919091179055620002c360008962000319565b6040516001600160a01b0389169033907fe7442843a65013dba5eebc77d5a00f5fafa588af0da4bf39250936d4783bb553906200030390600090620006a5565b60405180910390a3505050505050505062000843565b62000325828262000329565b5050565b620003358282620003b3565b620003255760008281526005602090815260408083206001600160a01b03851684529091529020805460ff191660011790556200036f3390565b6001600160a01b0316816001600160a01b0316837f2f8788117e7eff1d82e926ec794901d17c78024a50270940304540a733656f0d60405160405180910390a45050565b60008281526005602090815260408083206001600160a01b038516845290915290205460ff165b92915050565b828054620003ee9062000769565b90600052602060002090601f0160209004810192826200041257600085556200045d565b82601f106200042d57805160ff19168380011785556200045d565b828001600101855582156200045d579182015b828111156200045d57825182559160200191906001019062000440565b506200046b9291506200046f565b5090565b5b808211156200046b576000815560010162000470565b60006200049d6200049784620006d1565b620006b2565b90508083825260208201905082856020860282011115620004bd57600080fd5b60005b85811015620004ed5781620004d6888262000536565b8452506020928301929190910190600101620004c0565b5050509392505050565b6000620005086200049784620006f7565b9050828152602081018484840111156200052157600080fd5b6200052e84828562000736565b509392505050565b8051620003da8162000829565b600082601f8301126200055557600080fd5b81516200056784826020860162000486565b949350505050565b600082601f8301126200058157600080fd5b815162000567848260208601620004f7565b600060208284031215620005a657600080fd5b600062000567848462000536565b600080600080600080600080610100898b031215620005d257600080fd5b6000620005e08b8b62000536565b9850506020620005f38b828c0162000536565b9750506040620006068b828c0162000536565b9650506060620006198b828c0162000536565b95505060806200062c8b828c0162000536565b94505060a06200063f8b828c0162000536565b93505060c08901516001600160401b038111156200065c57600080fd5b6200066a8b828c0162000543565b92505060e08901516001600160401b038111156200068757600080fd5b620006958b828c016200056f565b9150509295985092959890939650565b81815260208101620003da565b6000620006be60405190565b9050620006cc82826200079a565b919050565b60006001600160401b03821115620006ed57620006ed62000813565b5060209081020190565b60006001600160401b0382111562000713576200071362000813565b601f19601f83011660200192915050565b60006001600160a01b038216620003da565b60005b838110156200075357818101518382015260200162000739565b8381111562000763576000848401525b50505050565b6002810460018216806200077e57607f821691505b60208210811415620007945762000794620007fd565b50919050565b601f19601f83011681018181106001600160401b0382111715620007c257620007c262000813565b6040525050565b6000600019821415620007e057620007e0620007e7565b5060010190565b634e487b7160e01b600052601160045260246000fd5b634e487b7160e01b600052602260045260246000fd5b634e487b7160e01b600052604160045260246000fd5b620008348162000724565b81146200084057600080fd5b50565b6148e780620008536000396000f3fe608060405234801561001057600080fd5b506004361061030a5760003560e01c80637aca573c1161019c578063c7493abb116100ee578063dd62ed3e11610097578063f84afd4811610071578063f84afd4814610680578063f887ea4014610693578063fd3865e1146106a657600080fd5b8063dd62ed3e14610611578063e79bd6e41461064a578063f79ed94b1461066057600080fd5b8063d4840641116100c8578063d4840641146105ec578063d547741f146105f5578063dbae9b0f1461060857600080fd5b8063c7493abb146105c7578063c838b074146105d0578063c9ce0e8c146105d957600080fd5b8063a217fddf11610150578063b6b55f251161012a578063b6b55f251461058e578063b6d0dcd8146105a1578063bac385c4146105b457600080fd5b8063a217fddf14610560578063a457c2d714610568578063a9059cbb1461057b57600080fd5b80638c00ca9d116101815780638c00ca9d1461050c57806391d148541461051f57806395d89b411461055857600080fd5b80637aca573c146104f1578063853828b61461050457600080fd5b80632f2ff15d116102605780635a3746ca11610209578063684cb274116101e3578063684cb2741461048e57806370a08231146104b557806372f702f3146104de57600080fd5b80635a3746ca146104555780635f8e9e911461046857806364b87a701461047b57600080fd5b80633902cbff1161023a5780633902cbff1461043057806339509351146104395780634a1510b41461044c57600080fd5b80632f2ff15d146103fb578063313ce5671461040e57806336568abe1461041d57600080fd5b806318160ddd116102c257806327b74a5d1161029c57806327b74a5d146103d45780632e1a7d4d146103dd5780632e5bd7ab146103f257600080fd5b806318160ddd1461039657806323b872dd1461039e578063248a9ca3146103b157600080fd5b8063095ea7b3116102f3578063095ea7b31461034d5780630ab8985b14610360578063147bd3af1461038057600080fd5b806301ffc9a71461030f57806306fdde0314610338575b600080fd5b61032261031d366004613797565b6106b9565b60405161032f91906143f1565b60405180910390f35b610340610722565b60405161032f919061441b565b61032261035b366004613641565b6107b4565b600d54610373906001600160a01b031681565b60405161032f919061440d565b610389600f5481565b60405161032f91906143ff565b600254610389565b6103226103ac3660046135f4565b6107ca565b6103896103bf36600461375a565b60009081526005602052604090206001015490565b61038960065481565b6103f06103eb36600461375a565b610845565b005b61038960155481565b6103f0610409366004613778565b610ca7565b601260405161032f919061467e565b6103f061042b366004613778565b610d1c565b61038960085481565b610322610447366004613641565b610d52565b61038960135481565b6103f0610463366004613671565b610d89565b61038961047636600461375a565b61162b565b600954610373906001600160a01b031681565b6103897f29944e936a0f6e1cbaa227df218d7d6025c2a2785db840e42a3425f24e9e68ac81565b6103896104c336600461359c565b6001600160a01b031660009081526020819052604090205490565b600b54610373906001600160a01b031681565b601154610373906001600160a01b031681565b6103f0611661565b6103f061051a3660046137d3565b6116b5565b61032261052d366004613778565b60009182526005602090815260408084206001600160a01b0393909316845291905290205460ff1690565b61034061170b565b610389600081565b610322610576366004613641565b61171a565b610322610589366004613641565b611777565b6103f061059c36600461375a565b611784565b6103736105af36600461375a565b61191f565b6103f06105c236600461359c565b611949565b61038960145481565b61038960075481565b6103896105e736600461375a565b6119ae565b61038960105481565b6103f0610603366004613778565b6119cf565b61038960125481565b61038961061f3660046135ba565b6001600160a01b03918216600090815260016020908152604080832093909416825291909152205490565b6106526119f9565b60405161032f9291906143cc565b601654610673906001600160a01b031681565b60405161032f91906142f3565b6103f061068e36600461359c565b611b30565b600e54610373906001600160a01b031681565b600c54610373906001600160a01b031681565b60006001600160e01b031982167f7965db0b00000000000000000000000000000000000000000000000000000000148061071c57507f01ffc9a7000000000000000000000000000000000000000000000000000000006001600160e01b03198316145b92915050565b606060038054610731906147a9565b80601f016020809104026020016040519081016040528092919081815260200182805461075d906147a9565b80156107aa5780601f1061077f576101008083540402835291602001916107aa565b820191906000526020600020905b81548152906001019060200180831161078d57829003601f168201915b5050505050905090565b60006107c1338484611b95565b50600192915050565b60006107d7848484611c3c565b6001600160a01b0384166000908152600160209081526040808320338452909152902054828110156108245760405162461bcd60e51b815260040161081b906144ec565b60405180910390fd5b61083885336108338685614733565b611b95565b60019150505b9392505050565b60405163327383a360e21b8152600090309063c9ce0e8c9061086b9085906004016143ff565b60206040518083038186803b15801561088357600080fd5b505afa158015610897573d6000803e3d6000fd5b505050506040513d601f19601f820116820180604052508101906108bb91906137b5565b336000908152602081905260409020549091508111156108ed5760405162461bcd60e51b815260040161081b9061454c565b600b546040516370a0823160e01b81526000916001600160a01b0316906370a082319061091e9030906004016142f3565b60206040518083038186803b15801561093657600080fd5b505afa15801561094a573d6000803e3d6000fd5b505050506040513d601f19601f8201168201806040525081019061096e91906137b5565b9050808311156109e2576009546001600160a01b0316632e1a7d4d6109938386614733565b6040518263ffffffff1660e01b81526004016109af91906143ff565b600060405180830381600087803b1580156109c957600080fd5b505af11580156109dd573d6000803e3d6000fd5b505050505b6011546007546008546040517f4ae2859c00000000000000000000000000000000000000000000000000000000815260009384936001600160a01b0390911692634ae2859c92610a369291906004016145dc565b604080518083038186803b158015610a4d57600080fd5b505afa158015610a61573d6000803e3d6000fd5b505050506040513d601f19601f82011682018060405250810190610a8591906137f2565b9092509050600081610a978785614714565b610aa19190614700565b9050600060135487601254610ab69190614714565b610ac09190614700565b905080821115610ace578091505b600b546016546040517fa9059cbb0000000000000000000000000000000000000000000000000000000081526000926001600160a01b039081169263a9059cbb92610b21929091169087906004016143a0565b602060405180830381600087803b158015610b3b57600080fd5b505af1158015610b4f573d6000803e3d6000fd5b505050506040513d601f19601f82011682018060405250810190610b73919061373c565b905080610b925760405162461bcd60e51b815260040161081b9061457c565b600b546000906001600160a01b031663a9059cbb33610bb1878d614733565b6040518363ffffffff1660e01b8152600401610bce9291906143a0565b602060405180830381600087803b158015610be857600080fd5b505af1158015610bfc573d6000803e3d6000fd5b505050506040513d601f19601f82011682018060405250810190610c20919061373c565b905080610c3f5760405162461bcd60e51b815260040161081b9061450c565b610c493389611d59565b8860066000828254610c5b9190614733565b909155505060405133907ff279e6a1f5e320cca91135676d9cb6e44ca8a08c0b88342bcdb1144f6511b56890610c94908c9088906145dc565b60405180910390a2505050505050505050565b600082815260056020526040902060010154610cc281611e33565b610ccc8383611e3d565b816001600160a01b0316336001600160a01b03167fe7442843a65013dba5eebc77d5a00f5fafa588af0da4bf39250936d4783bb55385604051610d0f91906143ff565b60405180910390a3505050565b6001600160a01b0381163314610d445760405162461bcd60e51b815260040161081b906145bc565b610d4e8282611e62565b5050565b3360008181526001602090815260408083206001600160a01b038716845290915281205490916107c19185906108339086906146e8565b8042811015610daa5760405162461bcd60e51b815260040161081b9061449c565b7f29944e936a0f6e1cbaa227df218d7d6025c2a2785db840e42a3425f24e9e68ac610dd481611e33565b600a54855114610df65760405162461bcd60e51b815260040161081b9061452c565b600a54845114610e185760405162461bcd60e51b815260040161081b906144bc565b600960009054906101000a90046001600160a01b03166001600160a01b0316633d18b9126040518163ffffffff1660e01b8152600401600060405180830381600087803b158015610e6857600080fd5b505af1158015610e7c573d6000803e3d6000fd5b5050600a5460009250905067ffffffffffffffff811115610ead57634e487b7160e01b600052604160045260246000fd5b604051908082528060200260200182016040528015610ed6578160200160208202803683370190505b50600a5490915060009067ffffffffffffffff811115610f0657634e487b7160e01b600052604160045260246000fd5b604051908082528060200260200182016040528015610f2f578160200160208202803683370190505b50600a5490915060009067ffffffffffffffff811115610f5f57634e487b7160e01b600052604160045260246000fd5b604051908082528060200260200182016040528015610f88578160200160208202803683370190505b50600a5490915060009067ffffffffffffffff811115610fb857634e487b7160e01b600052604160045260246000fd5b604051908082528060200260200182016040528015610ffd57816020015b6040805180820190915260008082526020820152815260200190600190039081610fd65790505b50905060005b600a5481101561119557600a818154811061102e57634e487b7160e01b600052603260045260246000fd5b6000918252602090912001546040516370a0823160e01b81526001600160a01b03909116906370a08231906110679030906004016142f3565b60206040518083038186803b15801561107f57600080fd5b505afa158015611093573d6000803e3d6000fd5b505050506040513d601f19601f820116820180604052508101906110b791906137b5565b8582815181106110d757634e487b7160e01b600052603260045260246000fd5b6020026020010181815250506040518060400160405280600a838154811061110f57634e487b7160e01b600052603260045260246000fd5b600091825260209182902001546001600160a01b03168252875191019087908490811061114c57634e487b7160e01b600052603260045260246000fd5b602002602001015181525082828151811061117757634e487b7160e01b600052603260045260246000fd5b6020026020010181905250808061118d90614803565b915050611003565b5060115460405163d93b66ed60e01b81526000916001600160a01b03169063d93b66ed906111c79085906004016143bb565b60006040518083038186803b1580156111df57600080fd5b505afa1580156111f3573d6000803e3d6000fd5b505050506040513d6000823e601f3d908101601f1916820160405261121b91908101906136d2565b6011546040517fefaafc810000000000000000000000000000000000000000000000000000000081529192506000916001600160a01b039091169063efaafc819061126a9086906004016143bb565b60006040518083038186803b15801561128257600080fd5b505afa158015611296573d6000803e3d6000fd5b505050506040513d6000823e601f3d908101601f191682016040526112be91908101906136d2565b905080518251146112e15760405162461bcd60e51b815260040161081b9061459c565b60005b82518110156114695782818151811061130d57634e487b7160e01b600052603260045260246000fd5b60200260200101516020015186828151811061133957634e487b7160e01b600052603260045260246000fd5b60200260200101818152505081818151811061136557634e487b7160e01b600052603260045260246000fd5b60200260200101516020015185828151811061139157634e487b7160e01b600052603260045260246000fd5b6020026020010181815250506013548782815181106113c057634e487b7160e01b600052603260045260246000fd5b60200260200101516012546113d59190614714565b6113df9190614700565b8582815181106113ff57634e487b7160e01b600052603260045260246000fd5b602002602001015187838151811061142757634e487b7160e01b600052603260045260246000fd5b602002602001015161143991906146e8565b11156114575760405162461bcd60e51b815260040161081b9061447c565b8061146181614803565b9150506112e4565b5050505061147b8383838b8b8b611ee5565b6000611485612367565b9050806006600082825461149991906146e8565b90915550506006546008546114ae9083614714565b6114b89190614700565b60075560005b600a5481101561157657611531338583815181106114ec57634e487b7160e01b600052603260045260246000fd5b6020026020010151600a848154811061151557634e487b7160e01b600052603260045260246000fd5b6000918252602090912001546001600160a01b03169190612518565b6016548351611564916001600160a01b0316908590849081106114ec57634e487b7160e01b600052603260045260246000fd5b8061156e81614803565b9150506114be565b506011546040517f2a5649920000000000000000000000000000000000000000000000000000000081526001600160a01b0390911690632a564992906115c09033906004016142f3565b600060405180830381600087803b1580156115da57600080fd5b505af11580156115ee573d6000803e3d6000fd5b50506006546040513393507f258093b0a9d5d82e9cac077902ed194cad818ab207af0eb201120b55c94eb33f9250610c949185918890889061463d565b600061163660025490565b61164257506000919050565b6002546006546116529084614714565b61071c9190614700565b919050565b336000908152602081905260408120541161168e5760405162461bcd60e51b815260040161081b906144cc565b336000908152602081905260408120546116a79061162b565b90506116b281610845565b50565b60006116c081611e33565b600f839055601082905560405133907fe8a0df875bece805d1b6bd1bf60bdf2abc88b51be72ed2bb5cd590532bc446a8906116fe90869086906145dc565b60405180910390a2505050565b606060048054610731906147a9565b3360009081526001602090815260408083206001600160a01b03861684529091528120548281101561175e5760405162461bcd60e51b815260040161081b906145ac565b61176d33856108338685614733565b5060019392505050565b60006107c1338484611c3c565b600b546040517f23b872dd0000000000000000000000000000000000000000000000000000000081526000916001600160a01b0316906323b872dd906117d290339030908790600401614301565b602060405180830381600087803b1580156117ec57600080fd5b505af1158015611800573d6000803e3d6000fd5b505050506040513d601f19601f82011682018060405250810190611824919061373c565b9050806118435760405162461bcd60e51b815260040161081b906144fc565b60405163327383a360e21b8152600090309063c9ce0e8c906118699086906004016143ff565b60206040518083038186803b15801561188157600080fd5b505afa158015611895573d6000803e3d6000fd5b505050506040513d601f19601f820116820180604052508101906118b991906137b5565b90506118c53382612583565b82600660008282546118d791906146e8565b909155506118e59050612367565b50336001600160a01b03167fe1fffcc4923d04b559f4d29a8bfc6cda04eb5b0d3c460751c2402c5c5cc9109c846040516116fe91906143ff565b600a818154811061192f57600080fd5b6000918252602090912001546001600160a01b0316905081565b600061195481611e33565b6011805473ffffffffffffffffffffffffffffffffffffffff19166001600160a01b03841690811790915560405133907ff76e779f769943b728cc826f493098475a7601f9ca3c1fa2696bc810f505056390600090a35050565b6000600654600014156119bf575090565b6006546002546116529084614714565b6000828152600560205260409020600101546119ea81611e33565b6119f48383611e62565b505050565b6060806000611a06612637565b60115460405163d93b66ed60e01b81529192506001600160a01b03169063d93b66ed90611a379084906004016143bb565b60006040518083038186803b158015611a4f57600080fd5b505afa158015611a63573d6000803e3d6000fd5b505050506040513d6000823e601f3d908101601f19168201604052611a8b91908101906136d2565b6011546040517f64f914910000000000000000000000000000000000000000000000000000000081529194506001600160a01b0316906364f9149190611ad59084906004016143bb565b60006040518083038186803b158015611aed57600080fd5b505afa158015611b01573d6000803e3d6000fd5b505050506040513d6000823e601f3d908101601f19168201604052611b2991908101906136d2565b9150509091565b6000611b3b81611e33565b6016805473ffffffffffffffffffffffffffffffffffffffff19166001600160a01b03841690811790915560405133907fbd45c5f5d28e3962d234f9fa4e443f6f92e4525b10556e441307306fab9f9e0390600090a35050565b6001600160a01b038316611bbb5760405162461bcd60e51b815260040161081b9061455c565b6001600160a01b038216611be15760405162461bcd60e51b815260040161081b9061445c565b6001600160a01b0380841660008181526001602090815260408083209487168084529490915290819020849055517f8c5be1e5ebec7d5bd14f71427d1e84f3dd0314c0f7b2291e5b200ac8c7c3b92590610d0f9085906143ff565b6001600160a01b038316611c625760405162461bcd60e51b815260040161081b9061453c565b6001600160a01b038216611c885760405162461bcd60e51b815260040161081b9061443c565b6001600160a01b03831660009081526020819052604090205481811015611cc15760405162461bcd60e51b815260040161081b9061446c565b611ccb8282614733565b6001600160a01b038086166000908152602081905260408082209390935590851681529081208054849290611d019084906146e8565b92505081905550826001600160a01b0316846001600160a01b03167fddf252ad1be2c89b69c2b068fc378daa952ba7f163c4a11628f55a4df523b3ef84604051611d4b91906143ff565b60405180910390a350505050565b6001600160a01b038216611d7f5760405162461bcd60e51b815260040161081b9061451c565b6001600160a01b03821660009081526020819052604090205481811015611db85760405162461bcd60e51b815260040161081b9061444c565b611dc28282614733565b6001600160a01b03841660009081526020819052604081209190915560028054849290611df0908490614733565b90915550506040516000906001600160a01b038516907fddf252ad1be2c89b69c2b068fc378daa952ba7f163c4a11628f55a4df523b3ef90610d0f9086906143ff565b6116b28133612b5e565b600082815260056020526040902060010154611e5881611e33565b6119f48383612bde565b60008281526005602090815260408083206001600160a01b038516845290915290205460ff1615610d4e5760008281526005602090815260408083206001600160a01b0385168085529252808320805460ff1916905551339285917ff6391f5c32d9c69d2a47ea670b442974b53935d1edc7fd64eb21e047a839171b9190a45050565b60008060005b87518110156121775760006002888381518110611f1857634e487b7160e01b600052603260045260246000fd5b60200260200101518a8481518110611f4057634e487b7160e01b600052603260045260246000fd5b60200260200101518c8581518110611f6857634e487b7160e01b600052603260045260246000fd5b6020026020010151611f7a9190614733565b611f849190614733565b611f8e9190614700565b9050612073878381518110611fb357634e487b7160e01b600052603260045260246000fd5b6020026020010151600060028110611fdb57634e487b7160e01b600052603260045260246000fd5b602002015182600a858154811061200257634e487b7160e01b600052603260045260246000fd5b9060005260206000200160009054906101000a90046001600160a01b031689868151811061204057634e487b7160e01b600052603260045260246000fd5b602002602001015160006002811061206857634e487b7160e01b600052603260045260246000fd5b602002015189612c80565b61207d90856146e8565b93506121578783815181106120a257634e487b7160e01b600052603260045260246000fd5b60200260200101516001600281106120ca57634e487b7160e01b600052603260045260246000fd5b602002015182600a85815481106120f157634e487b7160e01b600052603260045260246000fd5b9060005260206000200160009054906101000a90046001600160a01b031689868151811061212f57634e487b7160e01b600052603260045260246000fd5b602002602001015160016002811061206857634e487b7160e01b600052603260045260246000fd5b61216190846146e8565b925050808061216f90614803565b915050611eeb565b50600c54600e5460405163095ea7b360e01b81526001600160a01b039283169263095ea7b3926121ae9291169086906004016143a0565b602060405180830381600087803b1580156121c857600080fd5b505af11580156121dc573d6000803e3d6000fd5b505050506040513d601f19601f82011682018060405250810190612200919061373c565b50600d54600e5460405163095ea7b360e01b81526001600160a01b039283169263095ea7b3926122379291169085906004016143a0565b602060405180830381600087803b15801561225157600080fd5b505af1158015612265573d6000803e3d6000fd5b505050506040513d601f19601f82011682018060405250810190612289919061373c565b50600e54600c54600d54601054600f546001600160a01b039485169463e8e3370094811693169187918791906122bf9084614714565b6122c99190614700565b601054600f546122d9908a614714565b6122e39190614700565b308b6040518963ffffffff1660e01b8152600401612308989796959493929190614329565b606060405180830381600087803b15801561232257600080fd5b505af1158015612336573d6000803e3d6000fd5b505050506040513d601f19601f8201168201806040525081019061235a9190613822565b5050505050505050505050565b600b546040516370a0823160e01b815260009182916001600160a01b03909116906370a082319061239c9030906004016142f3565b60206040518083038186803b1580156123b457600080fd5b505afa1580156123c8573d6000803e3d6000fd5b505050506040513d601f19601f820116820180604052508101906123ec91906137b5565b90506000811161240e5760405162461bcd60e51b815260040161081b906144dc565b600b5460095460405163095ea7b360e01b81526001600160a01b039283169263095ea7b3926124449291169085906004016143a0565b602060405180830381600087803b15801561245e57600080fd5b505af1158015612472573d6000803e3d6000fd5b505050506040513d601f19601f82011682018060405250810190612496919061373c565b506009546040517fa694fc3a0000000000000000000000000000000000000000000000000000000081526001600160a01b039091169063a694fc3a906124e09084906004016143ff565b600060405180830381600087803b1580156124fa57600080fd5b505af115801561250e573d6000803e3d6000fd5b5092949350505050565b6119f48363a9059cbb60e01b84846040516024016125379291906143a0565b60408051601f198184030181529190526020810180517bffffffffffffffffffffffffffffffffffffffffffffffffffffffff166001600160e01b031990931692909217909152612e05565b6001600160a01b0382166125a95760405162461bcd60e51b815260040161081b906145cc565b80600260008282546125bb91906146e8565b90915550506001600160a01b038216600090815260208190526040812080548392906125e89084906146e8565b90915550506040516001600160a01b038316906000907fddf252ad1be2c89b69c2b068fc378daa952ba7f163c4a11628f55a4df523b3ef9061262b9085906143ff565b60405180910390a35050565b600a5460609060009067ffffffffffffffff81111561266657634e487b7160e01b600052604160045260246000fd5b60405190808252806020026020018201604052801561268f578160200160208202803683370190505b50905060005b600a5481101561278657600a81815481106126c057634e487b7160e01b600052603260045260246000fd5b6000918252602090912001546040516370a0823160e01b81526001600160a01b03909116906370a08231906126f99030906004016142f3565b60206040518083038186803b15801561271157600080fd5b505afa158015612725573d6000803e3d6000fd5b505050506040513d601f19601f8201168201806040525081019061274991906137b5565b82828151811061276957634e487b7160e01b600052603260045260246000fd5b60209081029190910101528061277e81614803565b915050612695565b50600a5460009067ffffffffffffffff8111156127b357634e487b7160e01b600052604160045260246000fd5b6040519080825280602002602001820160405280156127dc578160200160208202803683370190505b506009546040517e8cc2620000000000000000000000000000000000000000000000000000000081529192506001600160a01b031690628cc262906128259030906004016142f3565b60206040518083038186803b15801561283d57600080fd5b505afa158015612851573d6000803e3d6000fd5b505050506040513d601f19601f8201168201806040525081019061287591906137b5565b8160008151811061289657634e487b7160e01b600052603260045260246000fd5b60209081029190910101526009546040517f1e02cee30000000000000000000000000000000000000000000000000000000081526000916001600160a01b031690631e02cee3906128eb9030906004016142f3565b600060405180830381600087803b15801561290557600080fd5b505af1158015612919573d6000803e3d6000fd5b505050506040513d6000823e601f3d908101601f191682016040526129419190810190613707565b600a5490915061295390600190614733565b8151146129725760405162461bcd60e51b815260040161081b9061448c565b60005b81518110156129ef5781818151811061299e57634e487b7160e01b600052603260045260246000fd5b6020026020010151838260016129b491906146e8565b815181106129d257634e487b7160e01b600052603260045260246000fd5b6020908102919091010152806129e781614803565b915050612975565b50600a5460009067ffffffffffffffff811115612a1c57634e487b7160e01b600052604160045260246000fd5b604051908082528060200260200182016040528015612a6157816020015b6040805180820190915260008082526020820152815260200190600190039081612a3a5790505b50905060005b600a54811015612b55576040518060400160405280600a8381548110612a9d57634e487b7160e01b600052603260045260246000fd5b600091825260209182902001546001600160a01b031682528751910190879084908110612ada57634e487b7160e01b600052603260045260246000fd5b6020026020010151868481518110612b0257634e487b7160e01b600052603260045260246000fd5b6020026020010151612b1491906146e8565b815250828281518110612b3757634e487b7160e01b600052603260045260246000fd5b60200260200101819052508080612b4d90614803565b915050612a67565b50949350505050565b60008281526005602090815260408083206001600160a01b038516845290915290205460ff16610d4e57612b9c816001600160a01b03166014612e94565b612ba7836020612e94565b604051602001612bb892919061428f565b60408051601f198184030181529082905262461bcd60e51b825261081b9160040161441b565b60008281526005602090815260408083206001600160a01b038516845290915290205460ff16610d4e5760008281526005602090815260408083206001600160a01b03851684529091529020805460ff19166001179055612c3c3390565b6001600160a01b0316816001600160a01b0316837f2f8788117e7eff1d82e926ec794901d17c78024a50270940304540a733656f0d60405160405180910390a45050565b60006002865110612df957600e5460405163095ea7b360e01b81526001600160a01b038681169263095ea7b392612cbf929091169089906004016143a0565b602060405180830381600087803b158015612cd957600080fd5b505af1158015612ced573d6000803e3d6000fd5b505050506040513d601f19601f82011682018060405250810190612d11919061373c565b50600e546040517f38ed17390000000000000000000000000000000000000000000000000000000081526000916001600160a01b0316906338ed173990612d6490899088908c9030908a906004016145ea565b600060405180830381600087803b158015612d7e57600080fd5b505af1158015612d92573d6000803e3d6000fd5b505050506040513d6000823e601f3d908101601f19168201604052612dba9190810190613707565b90508060018251612dcb9190614733565b81518110612de957634e487b7160e01b600052603260045260246000fd5b6020026020010151915050612dfc565b50835b95945050505050565b6000612e5a826040518060400160405280602081526020017f5361666545524332303a206c6f772d6c6576656c2063616c6c206661696c6564815250856001600160a01b031661308b9092919063ffffffff16565b8051909150156119f45780806020019051810190612e78919061373c565b6119f45760405162461bcd60e51b815260040161081b9061458c565b60606000612ea3836002614714565b612eae9060026146e8565b67ffffffffffffffff811115612ed457634e487b7160e01b600052604160045260246000fd5b6040519080825280601f01601f191660200182016040528015612efe576020820181803683370190505b5090507f300000000000000000000000000000000000000000000000000000000000000081600081518110612f4357634e487b7160e01b600052603260045260246000fd5b60200101906001600160f81b031916908160001a9053507f780000000000000000000000000000000000000000000000000000000000000081600181518110612f9c57634e487b7160e01b600052603260045260246000fd5b60200101906001600160f81b031916908160001a9053506000612fc0846002614714565b612fcb9060016146e8565b90505b600181111561306c577f303132333435363738396162636465660000000000000000000000000000000085600f166010811061301a57634e487b7160e01b600052603260045260246000fd5b1a60f81b82828151811061303e57634e487b7160e01b600052603260045260246000fd5b60200101906001600160f81b031916908160001a90535060049490941c9361306581614792565b9050612fce565b50831561083e5760405162461bcd60e51b815260040161081b9061442c565b606061309a84846000856130a2565b949350505050565b6060824710156130c45760405162461bcd60e51b815260040161081b906144ac565b843b6130e25760405162461bcd60e51b815260040161081b9061456c565b600080866001600160a01b031685876040516130fe9190614283565b60006040518083038185875af1925050503d806000811461313b576040519150601f19603f3d011682016040523d82523d6000602084013e613140565b606091505b509150915061315082828661315b565b979650505050505050565b6060831561316a57508161083e565b82511561317a5782518084602001fd5b8160405162461bcd60e51b815260040161081b919061441b565b60006131a76131a2846146a3565b61468c565b905080838252602082019050828560208602820111156131c657600080fd5b60005b858110156131f257816131dc8882613432565b84525060209283019291909101906001016131c9565b5050509392505050565b600061320a6131a2846146c7565b9050808285602086028201111561322057600080fd5b60005b858110156131f257813567ffffffffffffffff81111561324257600080fd5b80860161324f898261343d565b855250506020928301929190910190600101613223565b60006132746131a2846146a3565b9050808382526020820190508285602086028201111561329357600080fd5b60005b858110156131f257813567ffffffffffffffff8111156132b557600080fd5b8086016132c2898261345e565b855250506020928301929190910190600101613296565b60006132e76131a2846146a3565b8381529050602081018260408502810186101561330357600080fd5b60005b858110156131f2578161331988826134df565b84525060209092019160409190910190600101613306565b600061333f6131a2846146a3565b8381529050602081018260408502810186101561335b57600080fd5b60005b858110156131f25781613371888261354a565b8452506020909201916040919091019060010161335e565b60006133976131a2846146c7565b905080828560208602820111156133ad57600080fd5b60005b858110156131f257816133c38882613529565b84525060209283019291909101906001016133b0565b60006133e76131a2846146a3565b9050808382526020820190508285602086028201111561340657600080fd5b60005b858110156131f2578161341c8882613591565b8452506020928301929190910190600101613409565b803561071c81614876565b600082601f83011261344e57600080fd5b813561309a848260208601613194565b600082601f83011261346f57600080fd5b600261309a8482856131fc565b600082601f83011261348d57600080fd5b813561309a848260208601613266565b600082601f8301126134ae57600080fd5b813561309a8482602086016132d9565b600082601f8301126134cf57600080fd5b815161309a848260208601613331565b600082601f8301126134f057600080fd5b600261309a848285613389565b600082601f83011261350e57600080fd5b815161309a8482602086016133d9565b805161071c8161488a565b803561071c81614892565b803561071c81614898565b805161071c816148a8565b60006040828403121561355c57600080fd5b613566604061468c565b90506000613574848461353f565b825250602061358584848301613591565b60208301525092915050565b805161071c81614892565b6000602082840312156135ae57600080fd5b600061309a8484613432565b600080604083850312156135cd57600080fd5b60006135d98585613432565b92505060206135ea85828601613432565b9150509250929050565b60008060006060848603121561360957600080fd5b60006136158686613432565b935050602061362686828701613432565b925050604061363786828701613529565b9150509250925092565b6000806040838503121561365457600080fd5b60006136608585613432565b92505060206135ea85828601613529565b60008060006060848603121561368657600080fd5b833567ffffffffffffffff81111561369d57600080fd5b6136a98682870161347c565b935050602084013567ffffffffffffffff8111156136c657600080fd5b6136268682870161349d565b6000602082840312156136e457600080fd5b815167ffffffffffffffff8111156136fb57600080fd5b61309a848285016134be565b60006020828403121561371957600080fd5b815167ffffffffffffffff81111561373057600080fd5b61309a848285016134fd565b60006020828403121561374e57600080fd5b600061309a848461351e565b60006020828403121561376c57600080fd5b600061309a8484613529565b6000806040838503121561378b57600080fd5b60006135d98585613529565b6000602082840312156137a957600080fd5b600061309a8484613534565b6000602082840312156137c757600080fd5b600061309a8484613591565b600080604083850312156137e657600080fd5b60006136608585613529565b6000806040838503121561380557600080fd5b60006138118585613591565b92505060206135ea85828601613591565b60008060006060848603121561383757600080fd5b60006138438686613591565b935050602061385486828701613591565b925050604061363786828701613591565b60006138718383613899565b505060200190565b60006138858383614250565b505060400190565b60006138718383613975565b6138a28161474a565b82525050565b60006138b2825190565b80845260209384019383018060005b838110156138e65781516138d58882613865565b9750602083019250506001016138c1565b509495945050505050565b60006138fb825190565b80845260209384019383018060005b838110156138e657815161391e8882613879565b97506020830192505060010161390a565b6000613939825190565b80845260209384019383018060005b838110156138e657815161395c888261388d565b975060208301925050600101613948565b8015156138a2565b806138a2565b6000613985825190565b613993818560208601614766565b9290920192915050565b6138a28161475b565b60006139b0825190565b8084526020840193506139c7818560208601614766565b601f01601f19169290920192915050565b60208082527f537472696e67733a20686578206c656e67746820696e73756666696369656e74910190815260005b5060200190565b602381526000602082017f45524332303a207472616e7366657220746f20746865207a65726f206164647281527f6573730000000000000000000000000000000000000000000000000000000000602082015291505b5060400190565b602281526000602082017f45524332303a206275726e20616d6f756e7420657863656564732062616c616e81527f636500000000000000000000000000000000000000000000000000000000000060208201529150613a63565b602281526000602082017f45524332303a20617070726f766520746f20746865207a65726f20616464726581527f737300000000000000000000000000000000000000000000000000000000000060208201529150613a63565b602681526000602082017f45524332303a207472616e7366657220616d6f756e742065786365656473206281527f616c616e6365000000000000000000000000000000000000000000000000000060208201529150613a63565b601881526000602082017f506572666f726d616e63652066656520746f6f2068696768000000000000000081529150613a06565b602b81526000602082017f496e636f727265637420616d6f756e74206f662065787465726e616c2072657781527f6172647320746f6b656e7300000000000000000000000000000000000000000060208201529150613a63565b601081526000602082017f4661726d426f743a20455850495245440000000000000000000000000000000081529150613a06565b602681526000602082017f416464726573733a20696e73756666696369656e742062616c616e636520666f81527f722063616c6c000000000000000000000000000000000000000000000000000060208201529150613a63565b604081526000602082017f506172616d65746572205f6d696e416d6f756e74734f7574206d75737420686181527f7665206c656e67746820657175616c20746f2072657761726473546f6b656e7360208201529150613a63565b601c81526000602082017f43616e6e6f74207769746864726177207a65726f2062616c616e63650000000081529150613a06565b602f81526000602082017f43616e6e6f7420696e7665737420696e206661726d206265636175736520746f81527f6b656e42616c616e63652069732030000000000000000000000000000000000060208201529150613a63565b602881526000602082017f45524332303a207472616e7366657220616d6f756e742065786365656473206181527f6c6c6f77616e636500000000000000000000000000000000000000000000000060208201529150613a63565b602181526000602082017f5472616e73666572206661696c65642c2061626f7274696e67206465706f736981527f740000000000000000000000000000000000000000000000000000000000000060208201529150613a63565b602481526000602082017f5472616e73666572206661696c65642c2061626f7274696e672077697468647281527f6177616c0000000000000000000000000000000000000000000000000000000060208201529150613a63565b602181526000602082017f45524332303a206275726e2066726f6d20746865207a65726f2061646472657381527f730000000000000000000000000000000000000000000000000000000000000060208201529150613a63565b603881526000602082017f506172616d65746572205f7061746873206d7573742068617665206c656e677481527f6820657175616c20746f2072657761726473546f6b656e73000000000000000060208201529150613a63565b602581526000602082017f45524332303a207472616e736665722066726f6d20746865207a65726f20616481527f647265737300000000000000000000000000000000000000000000000000000060208201529150613a63565b603881526000602082017f43616e6e6f74207769746864726177206d6f7265207468616e2074686520746f81527f74616c2062616c616e6365206f6620746865206f776e6572000000000000000060208201529150613a63565b602481526000602082017f45524332303a20617070726f76652066726f6d20746865207a65726f2061646481527f726573730000000000000000000000000000000000000000000000000000000060208201529150613a63565b601d81526000602082017f416464726573733a2063616c6c20746f206e6f6e2d636f6e747261637400000081529150613a06565b601f81526000602082017f466565206661696c65642c2061626f7274696e67207769746864726177616c0081529150613a06565b602a81526000602082017f5361666545524332303a204552433230206f7065726174696f6e20646964206e81527f6f7420737563636565640000000000000000000000000000000000000000000060208201529150613a63565b602581526000602082017f476f7420636f6e666c696374696e6720726573756c74732066726f6d2052657681527f6f4665657300000000000000000000000000000000000000000000000000000060208201529150613a63565b602581526000602082017f45524332303a2064656372656173656420616c6c6f77616e63652062656c6f7781527f207a65726f00000000000000000000000000000000000000000000000000000060208201529150613a63565b602f81526000602082017f416363657373436f6e74726f6c3a2063616e206f6e6c792072656e6f756e636581527f20726f6c657320666f722073656c66000000000000000000000000000000000060208201529150613a63565b601f81526000602082017f45524332303a206d696e7420746f20746865207a65726f20616464726573730081529150613a06565b80516040830190614261848261399d565b5060208201516142746020850182613975565b50505050565b60ff81166138a2565b600061083e828461397b565b7f416363657373436f6e74726f6c3a206163636f756e7420000000000000000000815260170160006142c1828561397b565b7f206973206d697373696e6720726f6c65200000000000000000000000000000008152601101915061309a828461397b565b6020810161071c8284613899565b6060810161430f8286613899565b61431c6020830185613899565b61309a6040830184613975565b6101008101614338828b613899565b614345602083018a613899565b6143526040830189613975565b61435f6060830188613975565b61436c6080830187613975565b61437960a0830186613975565b61438660c0830185613899565b61439360e0830184613975565b9998505050505050505050565b604081016143ae8285613899565b61083e6020830184613975565b6020808252810161083e81846138f1565b604080825281016143dd81856138f1565b9050818103602083015261309a81846138f1565b6020810161071c828461396d565b6020810161071c8284613975565b6020810161071c828461399d565b6020808252810161083e81846139a6565b6020808252810161071c816139d8565b6020808252810161071c81613a0d565b6020808252810161071c81613a6a565b6020808252810161071c81613ac4565b6020808252810161071c81613b1e565b6020808252810161071c81613b78565b6020808252810161071c81613bac565b6020808252810161071c81613c06565b6020808252810161071c81613c3a565b6020808252810161071c81613c94565b6020808252810161071c81613cee565b6020808252810161071c81613d22565b6020808252810161071c81613d7c565b6020808252810161071c81613dd6565b6020808252810161071c81613e30565b6020808252810161071c81613e8a565b6020808252810161071c81613ee4565b6020808252810161071c81613f3e565b6020808252810161071c81613f98565b6020808252810161071c81613ff2565b6020808252810161071c8161404c565b6020808252810161071c81614080565b6020808252810161071c816140b4565b6020808252810161071c8161410e565b6020808252810161071c81614168565b6020808252810161071c816141c2565b6020808252810161071c8161421c565b604081016143ae8285613975565b60a081016145f88288613975565b6146056020830187613975565b818103604083015261461781866138a8565b90506146266060830185613899565b6146336080830184613975565b9695505050505050565b6080810161464b8287613975565b6146586020830186613975565b818103604083015261466a818561392f565b90508181036060830152614633818461392f565b6020810161071c828461427a565b600061469760405190565b905061165c82826147d6565b600067ffffffffffffffff8211156146bd576146bd614860565b5060209081020190565b600067ffffffffffffffff8211156146e1576146e1614860565b5060200290565b600082198211156146fb576146fb61481e565b500190565b60008261470f5761470f614834565b500490565b600081600019048311821515161561472e5761472e61481e565b500290565b6000828210156147455761474561481e565b500390565b60006001600160a01b03821661071c565b600061071c8261474a565b60005b83811015614781578181015183820152602001614769565b838111156142745750506000910152565b6000816147a1576147a161481e565b506000190190565b6002810460018216806147bd57607f821691505b602082108114156147d0576147d061484a565b50919050565b601f19601f830116810181811067ffffffffffffffff821117156147fc576147fc614860565b6040525050565b60006000198214156148175761481761481e565b5060010190565b634e487b7160e01b600052601160045260246000fd5b634e487b7160e01b600052601260045260246000fd5b634e487b7160e01b600052602260045260246000fd5b634e487b7160e01b600052604160045260246000fd5b61487f8161474a565b81146116b257600080fd5b80151561487f565b8061487f565b6001600160e01b0319811661487f565b61487f8161475b56fea2646970667358221220a7434a3bd02046d52c20c71515f520184caac47c55fe418febd387212cc8620364736f6c63430008040033",
  "linkReferences": {},
  "deployedLinkReferences": {}
}